:020000040800F2
:10000000B0080020F51E0008CD1E0008CF1E000815
:10001000D11E0008D31E0008D51E000800000000F5
:10002000000000000000000000000000D71E0008D3
:10003000D91E000800000000DB1E0008DD1E0008BD
:100040001D1F0008211F0008251F0008291F000888
:100050002D1F0008311F0008351F0008391F000838
:100060003D1F0008411F0008451F0008491F0008E8
:100070004D1F0008511F0008551F0008591F000898
:100080005D1F0008611F0008651F0008691F000848
:100090006D1F0008711F0008751F0008791F0008F8
:1000A0007D1F0008811F0008851F0008891F0008A8
:1000B0008D1F0008911F0008951F0008991F000858
:1000C0009D1F0008A11F0008A51F0008A91F000808
:1000D000AD1F0008B11F0008B51F0008B91F0008B8
:1000E000BD1F0008C11F0008C51F0008C91F000868
:1000F000CD1F0008D11F0008D51F0008D91F000818
:10010000DD1F0008E11F0008E51F0008E91F0008C7
:10011000ED1F0008F11F0008F51F0008F91F000877
:10012000FD1F000801200008052000080920000824
:100130000D200008112000081520000819200008D3
:100140001D20000821200008252000082920000883
:100150002D20000831200008352000083920000833
:100160003D200008412000084520000849200008E3
:100170004D20000851200008552000085920000893
:100180005D20000861200008652000086920000843
:100190006D200008712000087520000879200008F3
:1001A0007D200008812000088520000889200008A3
:1001B0008D20000891200008952000089920000853
:1001C0009D200008A12000087CB50400012600F055
:1001D000FBFB0500002C01D101205AE0206A4028D9
:1001E00094F84000012801D1022052E0012084F857
:1001F000400094F8410000280AD1002084F8400013
:10020000200000F0E0FB41F28831200000F0B4FA59
:100210002068006830F4F850A168491E50EA0120B7
:1002200021680860A06C00902B0000222021200093
:1002300000F0A4FA0100C9B2002926D121680A6899
:1002400014490A40616852EA0162E1680A43E169BF
:100250000A43216A0A4321680A6021684A680E49F4
:100260000A40216952EA014261690A43A1690A43CD
:1002700021684A602168096851F001012268116013
:1002800000216164012184F84110002184F84010AC
:10029000C0B276BD2FFFFF00FEF8E0FF10B50400EE
:1002A000002C01D101201AE094F84000012801D16E
:1002B000022014E0012084F8400020680068400813
:1002C000400021680860200000F084FB002060648A
:1002D000002084F84100002084F84000002010BD78
:1002E0002DE9F84304000D0016005FF0010800F04E
:1002F0006BFB0700A8690028E8690028286A002825
:1003000094F84000012801D102203DE0012084F84A
:10031000400094F8410001282FD1002060640220A1
:1003200084F8410000963B0000222021200000F0CC
:1003300025FA81464846C0B2002820D10022290073
:10034000200000F044FA686A002812D100963B00B1
:1003500001220221200000F011FA81464846C0B275
:1003600000280CD102202168C860012084F84100D7
:1003700005E0012084F8410001E05FF0020900205F
:1003800084F840004846C0B2BDE8F2832DE9F84346
:1003900005000C001600002700F016FB80462868B8
:1003A00010F1200995F84000012801D102205EE0FB
:1003B000012085F8400095F84100012850D1002027
:1003C0006864002C45D0122085F841002868006937
:1003D000401CE86228680069401CA8626C622868BA
:1003E000406930F0406029684861E86A002815D00B
:1003F0000096434601220421280000F0BFF90700BF
:100400003800C0B2002809D1686A411C69620078CE
:1004100089F80000E86A401EE862E6E73800C0B2EA
:10042000002812D10096434601220221280000F044
:10043000A5F907003800C0B2002806D102202968BB
:10044000C860280000F04CF90700012085F8410041
:1004500008E0686C50F0080068640120070001E0C3
:1004600002200700002085F840003800C0B2BDE837
:10047000F2832DE9FC4705000C001600002700F070
:10048000A3FA80462868D0F81890286810F1200A4E
:1004900095F84000012801D1022063E0012085F891
:1004A000400095F84100012855D100206864002CD7
:1004B0004AD0222085F8410028680069401CA863C2
:1004C00028680069401C68632C632868406930F024
:1004D000406050F08060296848612868C0F8189032
:1004E000A86B002815D0009643460122062128005B
:1004F00000F044F907003800C0B2002809D1286B89
:10050000411C29639AF800100170A86B401EA86373
:10051000E6E73800C0B2002812D100964346012217
:100520000221280000F02AF907003800C0B2002894
:1005300006D102202968C860280000F0D1F8070021
:10054000012085F8410008E0686C50F008006864FC
:100550000120070001E002200700002085F840008C
:100560003800C0B2BDE8F6872DE9FC4704000D0055
:1005700016001F005FF0010800F026FA8146A86906
:100580000028E8690028286A002894F8400001281B
:1005900001D102204CE0012084F8400094F8410091
:1005A00001283ED100206064422084F84100009779
:1005B0004B4600222021200000F0E0F88246504601
:1005C000C0B200282FD13068216888627068216825
:1005D0004862B0682168C8622068016831F440014F
:1005E0003069014351F4800120680160F068A8621D
:1005F0005FF000622900200000F0E9F800974B4608
:1006000001220821200000F0B9F882465046C0B20D
:10061000002808D108202168C860012084F8410022
:1006200001E05FF0020A002084F840005046C0B2AA
:10063000BDE8F6872DE9F84304000D0016005FF0D1
:10064000010800F0C1F90700A8690028E86900283E
:10065000286A002894F84000012801D102203DE0DA
:10066000012084F8400094F8410001282FD1002097
:100670006064822084F84100A06C00903B0000225E
:100680002021200000F07AF881464846C0B20028B8
:100690001FD12068016831F00801706801432068AB
:1006A0000160706808280BD1306821680863102049
:1006B0002168C8602068006850F4801021680860D4
:1006C0005FF040622900200000F081F801E05FF057
:1006D0000209002084F840004846C0B2BDE8F28319
:1006E0007CB50400002500F06FF9060094F8410085
:1006F00080073ED5002084F840002068006840074D
:1007000011D52068006830F0040021680860E06BB3
:1007100000F07EF905002800C0B2002803D0606C0C
:1007200050F0040060642068006850F00200216806
:100730000860A06C0090330001220221200000F02C
:100740001DF805002800C0B200280BD10220216846
:10075000C860A06C0090330000222021200000F02F
:100760000DF805002800C0B2002802D1012084F84D
:1007700041002800C0B276BD816470472DE9F04188
:1007800005000E0090461F00069C286880683042D5
:1007900001D0012000E000204146C0B2C9B2884229
:1007A00012D014F1010FF0D0002C04D000F00CF99D
:1007B000C01B8442E9D2042085F84100686C50F0E7
:1007C00001006864012000E00020BDE8F08110B461
:1007D0004B6A002B06D0B2F1406F03D08B6A5B1ED0
:1007E000046823618B69002B79D00B6A002B3ED003
:1007F0008B680468E361CB69002B20D0CC6A0B6B5B
:100800001C434B6B1C434B6A1C434B6954EA8344A7
:100810000B691C430B6A1C43CB681C43CB691C430C
:100820008B691C430B681C43144303685C61B2F181
:10083000406F00F0C6804B680468A361C1E0CC6AD9
:100840000B6B1C434B6B1C434B6A1C434B6954EAB8
:1008500083440B691C430B6A1C43CB691C438B69A3
:100860001C430B681C43144303685C61A9E0CB691B
:10087000002B1ED0CC6A0B6B1C434B6B1C434B6A8A
:100880001C434B6954EA83440B6A1C43CB681C43EA
:10089000CB691C438B691C430B681C4314430368DE
:1008A0005C61B2F1406F00F08C804B680468A3611A
:1008B00087E0CC6A0B6B1C434B6B1C434B6A1C439D
:1008C0004B6954EA83440B6A1C43CB691C438B6914
:1008D0001C430B681C43144303685C6171E00B6AA2
:1008E000002B39D08B680468E361CB69002B1DD0E5
:1008F000CC6A0B6B1C434B6B1C434B6A1C434B6910
:1009000054EA83440B691C430B6A1C43CB681C43A9
:10091000CB691C438B691C43144303685C61B2F1CF
:10092000406F4ED04B680468A3614AE0CC6A0B6B01
:100930001C434B6B1C434B6A1C434B6954EA834476
:100940000B691C430B6A1C43CB691C438B691C431A
:10095000144303685C6134E0CB69002B1BD0CC6A84
:100960000B6B1C434B6B1C434B6A1C434B6954EA97
:1009700083440B6A1C43CB681C43CB691C438B69C3
:100980001C43144303685C61B2F1406F19D04B689B
:100990000468A36115E04B6A002B12D0CC6A0B6B84
:1009A0001C434B6B1C434B6A1C434B6954EA834406
:1009B0000B6A1C43CB691C438B691C4314430368BB
:1009C0005C6110BC7047704701480068704700BF09
:1009D000AC000020704730B4002513E050F8042B21
:1009E000D30744BFA9F101039A18091F042942F84B
:1009F000045BFAD213468C0744BF15809B1CC907C1
:100A000048BF1D7050F8041B0029E7D130BC704767
:100A100070B50400A56DFFF7D7FF060094F8350008
:100A2000022806D080206065002084F83400012070
:100A30003BE02068006830F01600216808602068FC
:100A4000406930F0800021684861206C002802D1A4
:100A5000A06C002805D02068006830F008002168EC
:100A6000086020680068400840002168086020682D
:100A70000068C0070ED5FFF7A7FF801B0628F6D336
:100A800020206065002084F83400032084F83500BD
:100A900003200AE03F21E06D8140A960002084F836
:100AA0003400012084F83500002070BD2DE9FC41A0
:100AB00004000026002C01D10120D8E12078C007D5
:100AC0006DD5DFF89405016811F00C01042909D0F7
:100AD000006810F00C0008280ED1DFF880050068CF
:100AE000400209D5DFF86C050068800357D56068BF
:100AF000002854D10120BAE16068B0F5803F06D1EA
:100B0000DFF85005016851F48031016026E060682B
:100B100000280AD1DFF83C05016831F4803101601A
:100B2000016831F48021016018E06068B0F5A02F01
:100B30000AD1DFF82005016851F4802101600168C5
:100B400051F48031016009E0DFF80805016831F4F3
:100B500080310160016831F4802101606068002803
:100B60000ED0FFF731FF0500DFF8E80400688003CE
:100B700015D4FFF729FF401B6528F5D3032076E144
:100B8000FFF722FF0500DFF8CC040068800306D5DC
:100B9000FFF71AFF401B6528F5D3032067E1207893
:100BA000800752D5DFF8B004016811F00C0F09D0AE
:100BB000006810F00C00082816D1DFF8A0040068C7
:100BC000400211D4DFF88C040168890704D5E1687C
:100BD000012901D001204AE1016831F0F8012269C0
:100BE00051EAC201016030E0E06800281AD0DFF865
:100BF0006474386850F001003860FFF7E5FE0500C6
:100C00003868800706D4FFF7DFFE401B0328F7D3C0
:100C100003202CE1386830F0F800216950EAC10067
:100C2000386012E0DFF82C74386840084000386003
:100C3000FFF7CAFE05003868800706D5FFF7C4FE37
:100C4000401B0328F7D3032011E12078000728D5A3
:100C50006069002812D0DFF80874386850F001008D
:100C60003860FFF7B1FE05003868800719D4FFF738
:100C7000ABFE401B0328F7D30320F8E0DFF8E07356
:100C80003868400840003860FFF79EFE050038686D
:100C9000800706D5FFF798FE401B0328F7D30320F3
:100CA000E5E02078400740F18780DFF8C0733868BE
:100CB000C0000AD4386850F080503860386810F0AE
:100CC00080500090009801200600DFF8A483D8F837
:100CD0000000C00513D4D8F8000050F48070C8F8A4
:100CE0000000FFF771FE0500D8F80000C00506D42B
:100CF000FFF76AFE401B6528F6D30320B7E0A06823
:100D0000012806D1DFF86C03016851F00101016090
:100D100025E0A06800280AD1DFF8580301684908D7
:100D200049000160016831F00401016017E0A0682A
:100D300005280AD1DFF83C03016851F00401016085
:100D4000016851F00101016009E0DFF82803016842
:100D5000490849000160016831F004010160A068A0
:100D6000002810D0FFF730FE0500DFF80803006808
:100D7000800719D4FFF728FE401B41F289318842D1
:100D8000F3D3032073E0FFF71FFE0500DFF8E40252
:100D90000068800708D5FFF717FE401B41F2893134
:100DA0008842F3D3032062E03000C0B2012803D1AF
:100DB000386830F080503860A069002856D0DFF8DD
:100DC0009802006810F00C0008284DD0A069022895
:100DD00037D1DFF88072386830F080703860FFF704
:100DE000F3FD80463868800107D5FFF7EDFDB0EBD5
:100DF00008000328F6D3032039E0E169206A0143A3
:100E0000606A51EA8011A06A4008401E51EA004120
:100E1000E06A51EA006151F00051DFF840020160E0
:100E2000386850F080703860FFF7CEFD05003868F4
:100E300080011BD4FFF7C8FD401B0328F7D3032014
:100E400015E0DFF81072386830F080703860FFF716
:100E5000BBFD05003868800108D5FFF7B5FD401BD4
:100E60000328F7D3032002E0012000E00020BDE8C2
:100E7000F6812DE9F04104000D000026002C01D17F
:100E800001209FE0DFF8F071386810F00F00A842F1
:100E90000BD238680009000128433860386810F028
:100EA0000F00A84201D001208CE02078800719D5DE
:100EB0002078400705D5DFF8A001016851F4E05122
:100EC00001602078000705D5DFF88C01016851F436
:100ED00060410160DFF880110A6832F0F002A0681A
:100EE00002430A602078C00737D56068012806D120
:100EF000DFF860010068800311D4012062E06068BF
:100F0000022806D1DFF84C010068800107D40120D7
:100F100058E050480068800701D4012052E0DFF813
:100F20003881D8F800108908890060680143C8F842
:100F30000010FFF749FD0600D8F8000010F00C0083
:100F40006168B0EB810F08D0FFF73EFD801B41F2D6
:100F500089318842F0D3032034E0386810F00F0064
:100F600085420BD238680009000128433860386890
:100F700010F00F00A84201D0012023E020784007A4
:100F800006D535490A6832F4E052E06802430A6047
:100F90002078000707D53048016831F460412269A4
:100FA00051EAC201016000F00FF834492A4A126880
:100FB000C2F30312895CC8402B4908600F2000F07F
:100FC00061F80020BDE8F0812DE9F0410024002502
:100FD000002600272048006810F00C00002804D0EC
:100FE000042804D0082804D031E01E4830E024480A
:100FF0002EE0DFF86880D8F8000010F03F00040011
:10100000D8F8000040020CD5D8F80000C0F38810D2
:101010001B49A1FB00012200002300F059F8050044
:101020000BE0D8F80000C0F388100E49A1FB0001C6
:101030002200002300F04CF80500D8F80000C0F3AF
:101040000140401C40000600B5FBF6F000E00548FA
:10105000BDE8F08100380240083802400438024000
:10106000743802400024F40004000020403802409C
:101070000070004070380240003C0240E41E00084E
:1010800040787D0110B504004FF47A700D4909785D
:10109000B0FBF1F00C490968B1FBF0F000F0B0F9D9
:1010A000002801D001200CE0102C09D200222100E0
:1010B0005FF0FF3000F08FF904480460002000E08A
:1010C000012010BD080000200400002000000020C6
:1010D000BBBBE1B1B2F5803F80F07E80022A1ED911
:1010E0008C46B1FBF2F102FB11C31B0443EA10432F
:1010F000B3FBF2FC02FB1C3380B240EA0343B3FBB8
:10110000F2F002FB103240EA0C4000237047022A42
:1011100005D98446B0FBF2F002FB10C270474AB119
:1011200005D100F0010249085FEA30007047002253
:101130000023704700F078B90B0002000021002066
:101140007047904271EB030CF6D3B3F5803F2FD27A
:10115000F0B5B3FA83F7B1FA81F4A7F10F0E3D1B96
:101160005340CEF1200602FA0EF2F3415340B5F19E
:101170000F0746D80F3C2C444140C4F12006A04044
:10118000F1414140B1FBF3F603FB1611A2FB06450A
:10119000001BA94102D2761E8018594180EA010243
:1011A00021FA0EF362FA0EF200215A403046F0BDE9
:1011B00030B4B1FBF3FC03FB1C11A2FB0C45001B7C
:1011C000A94103D2ACF1010C8018594130BC024650
:1011D0000B46604600217047B2F1807F65D3F0B5C1
:1011E000B2FA82F7B1FA81F4C7F10F063D1B22FA79
:1011F00006F307F1110EF24120355A40B5F10F0701
:10120000B8D94140C4F12006A040F1414140B1FBB2
:10121000F3FC03FB1C11A2FB0C45001BA94103D2EC
:10122000BCF1010C801859410F2F12D30F3FC90395
:1012300041EA5041B1FBF3F603FB1611A2FB064550
:10124000D4EBC030A94102D2761E8018594146EA3B
:10125000CC3C07B34140C7F12006B840F1414140C2
:10126000B1FBF3F603FB1611A2FB0645001BA941D7
:1012700002D2761E8018594180EA010221FA0EF34B
:10128000C7F1200462FA0EF20CFA07F05A402CFA69
:1012900004F13043F0BD80EA010221FA0EF300218F
:1012A00062FA0EF260465A40F0BD8C46B1FBF2F194
:1012B00002FB11C31B0243EA1063B3FBF2FC02FB07
:1012C0001C331B024CEA002043EA1063B3FBF2FC20
:1012D00002FB1C331B024CEA002043EA1063B3FB01
:1012E000F2FC02FB1C331B024CEA002043EA1063B1
:1012F000B3FBF2FC02FB1C324CEA002000237047D7
:1013000010B410F00703DFF8044122684FF6FF0124
:101310000A40DFF8FC1051EA03210A43226010BCA6
:101320007047DFF8E8000068C0F30220704710B48F
:10133000020052B2002A05D40A01364B040064B2FE
:101340001A5508E00A01344B040064B214F00F048B
:10135000234403F8042C10BC704770B4030013F04E
:101360000704D4F10700052801D3042001E0D4F1DB
:101370000700251D072D01D2002500E0E51E0126EE
:1013800016FA00F0401E0140A94016FA05F56D1E40
:101390002A401143080070BC704710B50400601E5D
:1013A000B0F1807F01D301200EE0601E1B49086070
:1013B0000F215FF0FF30FFF7BAFF002018490860E7
:1013C000072018490860002010BD10B50400200057
:1013D000FFF796FF10BD2DE9F04104000D00160047
:1013E0000027FFF79EFF8046320029004046FFF7A6
:1013F000B4FF0100200040B2FFF799FFBDE8F08183
:1014000010B504002000FFF7C8FF10BD0CED00E090
:101410000000FA0500E400E018ED00E014E000E050
:1014200018E000E010E000E07047000010B5CC4C80
:10143000CC4820602000FEF731FF002801D00120B9
:1014400055E000F095F9C8480021C1610021016212
:1014500000214162002141610021C162002101633C
:10146000002141634FF40051C160C0480021016177
:101470000121C160102181605FF480014161012080
:1014800060600420A0601020E0608020B0FA80F04E
:10149000401E20614FF4A06060610020A061002028
:1014A000E061002020622000FEF78EFE002801D0BF
:1014B00001201CE0200000F01BF8002801D00120D2
:1014C00015E0200000F0ACF8002801D001200EE06B
:1014D000200000F04DF8002801D0012007E0200096
:1014E00000F028F8002801D0012000E0002010BD05
:1014F00070B504009C4D4FF48070A8616620286090
:101500000020686241F28836320029002000FEF790
:10151000E7FE002801D001200BE09920286032006E
:1015200029002000FEF7DCFE002801D0012000E0A9
:10153000002070BD1CB504008B494FF440708861D9
:10154000EB2008604FF44060C8615FF04070486273
:101550000A20486100200190002000906A46200087
:10156000FFF768F8002801D0012000E0002016BD38
:1015700030B58FB004004FF4807007908520019043
:1015800000200890002009905FF080700A900020F1
:10159000069001200B9000200C9000200D90002060
:1015A0000E9041F288352A0001A92000FEF798FE2E
:1015B000002801D0012031E02A0069462000FEF712
:1015C00058FF002801D0012028E0200000F09EF8FC
:1015D000002801D0012021E0812001909DF8001019
:1015E00011F00F010A225FF07060B0FA80F08240C3
:1015F00011438DF800102A0001A92000FEF770FEAB
:10160000002801D0012009E02A0069462000FEF7E9
:10161000BDFE002801D0012000E000200FB030BD49
:10162000F0B595B004004FF4807007900020099049
:101630000020069000200C9000200D9000200E90BD
:1016400010201190002013905FF48000149065200A
:101650000190002008905FF080750A9501200B90A2
:101660003F4E41F288373A0001A93000FEF738FEBC
:10167000002801D0012047E03A0069463000FEF71B
:10168000F8FE002801D001203EE006200190002055
:101690000A903A0001A93000FEF722FE002801D08E
:1016A000012031E002200F900220109001201290C2
:1016B000052001900A953B000FAA01A93000FEF712
:1016C00053FF002801D001201EE06120019001207D
:1016D0000B909DF8000010F03F0050F040008DF896
:1016E00000003A0001A93000FEF7FAFD002801D001
:1016F000012009E03A0069463000FEF747FE002865
:1017000001D0012000E0002015B0F0BD70B504004C
:10171000154D4FF44070A8610620286000206862D3
:1017200041F28836320029002000FEF7D9FD00285A
:1017300001D0012013E00D4A022010600220506009
:10174000052028605FF040706862330029002000A7
:10175000FEF70AFF002801D0012000E0002070BD44
:101760000C000020001000A0580000209000002075
:1017700010B586B03648016851F00201016000687A
:1017800010F00200059005983248016851F00201FE
:101790000160016831F0020101602F48016851F0D9
:1017A00002010160016811F00201059105990168CB
:1017B00051F008010160016811F0080105910599D7
:1017C000016851F010010160006810F010000590F0
:1017D0000598402000900A200490022001900120EA
:1017E0000290022003901D4C6946200000F03CF856
:1017F00004200090092004900020029069462000F7
:1018000000F032F84FF40060009009200490144C6E
:101810006946200000F028F84FF48050009009201D
:1018200004906946200000F01FF804200090092071
:10183000049069460B4800F017F84FF400500090F0
:10184000092004906946200000F00EF806B010BD93
:101850003838024018380240303802400004024054
:10186000000C0240001002402DE9F8410022002344
:10187000002400260025102D80F00B81012717FA87
:1018800005F213000A681A4014009C4240F0FF80E1
:101890004A68022A02D04A68122A1FD12A00D208B6
:1018A00000EB8202D2F820C05FF00F0E15F00702A5
:1018B000D2B292001EFA02FE3CEA0E0CD1F810E001
:1018C00015F00702D2B292001EFA02FE5EEA0C0C7C
:1018D00066462A00D20800EB82021662D0F800C0E9
:1018E0005FF0030E2A00D2B252001EFA02F23CEA66
:1018F000020C91F8048018F003082A00D2B25200BA
:1019000018FA02F858EA0C0CC0F800C04A68012A1C
:1019100008D04A68022A05D04A68112A02D04A68CB
:10192000122A1BD186682A00D2B252001EFA02F295
:101930009643D1F80C802A00D2B2520018FA02F86D
:1019400058EA060686604268AF40BA434F68C7F35C
:101950000017AF403A439446C0F804C0C6682A0056
:10196000D2B252001EFA02FE36EA0E068F682A0034
:10197000D2B2520097403E43C6604A68D20040F15E
:101980008680DFF81421176857F4804717601268C3
:1019900012F480420092009ADFF800C12A009208F7
:1019A0005CF822705FF00F0E15F00302D2B29200C5
:1019B0001EFA02FE37EA0E07DFF8E420904201D15A
:1019C000002631E0DFF8DC20904201D101262BE037
:1019D000DFF8D420904201D1022625E0DFF8CC20A8
:1019E000904201D103261FE0DFF8C420904201D1CC
:1019F000042619E02F4A904201D1052614E02E4A10
:101A0000904201D106260FE02C4A904201D10726D0
:101A10000AE02B4A904201D1082605E0294A90426B
:101A200001D1092600E00A26F6B215F00302D2B26F
:101A30009200964037432A0092084CF82270224EBA
:101A40003268A243D1F804C05FEACC3C00D52243FF
:101A500032601E4F3E68A643D1F804C05FEA8C3C5A
:101A600000D526433E601A4F3A68A243D1F804C01D
:101A70005FEACC2C00D522433A60164F3E68A6435D
:101A8000D1F804C05FEA8C2C00D526433E606D1C63
:101A9000F1E6BDE8F1810000443802400838014019
:101AA000000002400004024000080240000C024016
:101AB000001002400014024000180240001C0240C6
:101AC0000020024000240240003C0140043C014050
:101AD000083C01400C3C0140BFF34F8FBFF36F8FB8
:101AE000002049490860BFF34F8FBFF36F8F47480D
:101AF000016851F400310160BFF34F8FBFF36F8F66
:101B00007047BFF34F8FBFF36F8F4048016831F4C8
:101B10000031016000203C490860BFF34F8FBFF3E4
:101B20006F8F704710B4002039490860BFF34F8FA2
:101B300038480168C1F34E32C1F3C900030043F6CF
:101B4000E07010EA421050EA8370334C20601800B5
:101B5000431E0028F3D11000421E0028ECD1BFF331
:101B60004F8F2A48046854F480340460BFF34F8FC9
:101B7000BFF36F8F10BC704710B400202449086079
:101B8000BFF34F8F2148016831F480310160BFF30A
:101B90004F8F20480168C1F34E32C1F3C9000300E2
:101BA00043F6E07010EA421050EA83701B4C20604C
:101BB0001800431E0028F3D11000421E0028ECD16B
:101BC000BFF34F8FBFF36F8F10BC704780B500F02D
:101BD00072F800F07DF800F030F800F027F80028E7
:101BE00001D000F029F800F06CF800200C490860E2
:101BF0000C480D49096801605FF01041096881F3E4
:101C0000088800688047FEE750EF00E014ED00E030
:101C100084ED00E080ED00E060EF00E074EF00E0B4
:101C200010E000E0A80000200400009010B500249F
:101C3000FFF7FCFB204310BDFEE730B591B0002458
:101C4000012005905FF48030069002200B905FF435
:101C500080000C9019200D904FF4D8700E90022047
:101C60000F900820109005A8FEF720FF050028001F
:101C7000C0B2002800D0FEE700F03EF804002000CB
:101C8000C0B2002800D0FEE70F2000900220019093
:101C9000002002904FF4A05003904FF48050049025
:101CA00006216846FFF7E5F80100C9B2002900D017
:101CB000FEE711B030BD80B5FFF70EFFFFF732FF32
:101CC00001BD80B5FFF71DFFFFF756FF01BD000006
:101CD00080B50748016851F4807101600320FFF767
:101CE00074FB0F20FFF7CEF900F004F8002002BDCE
:101CF000003C0240704700007CB500241B4801688E
:101D000051F080510160006810F080500090009800
:101D1000154E306850F480303060FEF755FE0500F7
:101D2000104C2068C00308D4FEF74EFE401B40F262
:101D3000E9318842F4D3032013E0306850F40030D6
:101D40003060FEF741FE06002068800308D4FEF7ED
:101D50003BFE801B40F2E9318842F5D3032000E0CE
:101D6000002076BD04700040007000404038024002
:101D70000F48016851F4700101600E49086850F085
:101D80000100086000200C4A10600A680B480240FD
:101D90000A600B480B4A1060086830F48020086025
:101DA0000020094908605FF000600849086070473A
:101DB00088ED00E00038024008380240FFFFF6FEE0
:101DC00010300024043802400C38024008ED00E0D6
:101DD00030B450F8041B79B10268436802440830FB
:101DE000DC0744BFA9F10104E31852F8045B43F88F
:101DF000045B091FF9D1ECE730BC704710B5074907
:101E000079441831064C7C44163404E00A68081DF5
:101E1000114488470146A142F8D110BD2C000000B2
:101E20004C0000004EF68851CEF20001086840F4E4
:101E300070000860BFF34F8FBFF36F8F4FF00070DB
:101E4000E1EE100A704700008FEBFFFFA4000000D6
:101E50000C0000200000000079FFFFFF0C000000D4
:101E6000B0000000000000200000000000F00DF8AD
:101E7000002801D0FFF7C2FFAFF300800020AFF3CE
:101E80000080FFF7A3FE00F002F80120704700F089
:101E900001B800000746384600F002F8FBE70000F2
:101EA00080B5AFF30080024A11001820ABBEFBE7FB
:101EB0002600020003480168034A1278891801606D
:101EC000704700BFAC000020080000207047FEE70C
:101ED000FEE7FEE7FEE770477047704780B5FFF703
:101EE000E9FF01BD00000000000000000102030442
:101EF000060708090148804701480047711D00088E
:101F0000051F0008AFF30080FFF78CFFFFF7AEFF5F
:101F1000100000000024F40001000000FFF7FEBFE5
:101F2000FFF7FEBFFFF7FEBFFFF7FEBFFFF7FEBFE5
:101F3000FFF7FEBFFFF7FEBFFFF7FEBFFFF7FEBFD5
:101F4000FFF7FEBFFFF7FEBFFFF7FEBFFFF7FEBFC5
:101F5000FFF7FEBFFFF7FEBFFFF7FEBFFFF7FEBFB5
:101F6000FFF7FEBFFFF7FEBFFFF7FEBFFFF7FEBFA5
:101F7000FFF7FEBFFFF7FEBFFFF7FEBFFFF7FEBF95
:101F8000FFF7FEBFFFF7FEBFFFF7FEBFFFF7FEBF85
:101F9000FFF7FEBFFFF7FEBFFFF7FEBFFFF7FEBF75
:101FA000FFF7FEBFFFF7FEBFFFF7FEBFFFF7FEBF65
:101FB000FFF7FEBFFFF7FEBFFFF7FEBFFFF7FEBF55
:101FC000FFF7FEBFFFF7FEBFFFF7FEBFFFF7FEBF45
:101FD000FFF7FEBFFFF7FEBFFFF7FEBFFFF7FEBF35
:101FE000FFF7FEBFFFF7FEBFFFF7FEBFFFF7FEBF25
:101FF000FFF7FEBFFFF7FEBFFFF7FEBFFFF7FEBF15
:10200000FFF7FEBFFFF7FEBFFFF7FEBFFFF7FEBF04
:10201000FFF7FEBFFFF7FEBFFFF7FEBFFFF7FEBFF4
:10202000FFF7FEBFFFF7FEBFFFF7FEBFFFF7FEBFE4
:10203000FFF7FEBFFFF7FEBFFFF7FEBFFFF7FEBFD4
:10204000FFF7FEBFFFF7FEBFFFF7FEBFFFF7FEBFC4
:10205000FFF7FEBFFFF7FEBFFFF7FEBFFFF7FEBFB4
:10206000FFF7FEBFFFF7FEBFFFF7FEBFFFF7FEBFA4
:10207000FFF7FEBFFFF7FEBFFFF7FEBFFFF7FEBF94
:10208000FFF7FEBFFFF7FEBFFFF7FEBFFFF7FEBF84
:10209000FFF7FEBFFFF7FEBFFFF7FEBFFFF7FEBF74
:0420A000FFF7FEBF89
:0200000490006A
:100000000000052055060090E1200090E3200090BC
:10001000E5200090E7200090E9200090000000001B
:10002000000000000000000000000000C17400900B
:10003000EB2000900000000061750090C5750090F5
:10004000A5060090A5060090A5060090A5060090C4
:10005000A5060090A5060090A5060090A5060090B4
:10006000A5060090A5060090A5060090A5060090A4
:10007000A5060090A5060090A5060090A506009094
:10008000A5060090A5060090A5060090A506009084
:10009000A5060090A5060090A5060090A506009074
:1000A000A5060090A5060090A5060090A506009064
:1000B000A5060090A5060090A5060090A506009054
:1000C000A5060090A5060090A5060090A506009044
:1000D000A5060090A5060090A5060090A506009034
:1000E000A5060090A5060090A5060090A506009024
:1000F000A5060090A5060090A5060090A506009014
:10010000A5060090A5060090A5060090A506009003
:10011000A5060090A5060090ED200090A506009091
:10012000A5060090A5060090A5060090A5060090E3
:10013000A5060090A5060090A5060090A5060090D3
:10014000A5060090A5060090A5060090A5060090C3
:10015000A5060090A5060090A5060090A5060090B3
:10016000A5060090A5060090A5060090A5060090A3
:10017000A5060090A5060090A5060090A506009093
:10018000A5060090A5060090A5060090A506009083
:10019000A5060090A5060090A5060090A506009073
:1001A000F9200090A506009005210090A50600907A
:1001B000A5060090A5060090A5060090A506009053
:0801C000A5060090A5060090C1
:1001D00010B5054C237833B9044B13B10448AFF381
:1001E00000800123237010BD4003002000000000A8
:1001F000C454029008B5034B1BB103490348AFF345
:10020000008008BD0000000044030020C454029098
:1002100001F0FF01102A2BDB10F0070F08D010F8B7
:10022000013B013A8B422DD010F0070F42B3F6D1BB
:10023000F0B441EA012141EA014122F007047FF0D4
:1002400000070023F0E80256083C85EA010586EA2B
:10025000010685FA47F5A3FA87F586FA47F6A5FA67
:1002600087F68EB9EED1F0BC01F0FF0102F0070273
:1002700032B110F8013B013A83EA010313B1F8D11E
:100280000020704701387047002D06BF35460338FF
:10029000073815F0010F07D1013015F4807F02BF38
:1002A000013015F4C03F0130F0BC0138704700BF89
:1002B0007BB972B90029BEBF00204FF0004106E0B3
:1002C00008BF00281CBF6FF000414FF0FF3000F066
:1002D000BFB9ADF1080C6DE904CE002909DB002B94
:1002E0001ADB00F04DF8DDF804E0DDE9022304B08C
:1002F0007047404261EB4101002B1BDB00F040F8EE
:10030000DDF804E0DDE9022304B0404261EB410185
:10031000524263EB43037047524263EB430300F0E6
:100320002FF8DDF804E0DDE9022304B0404261EB80
:1003300041017047524263EB430300F021F8DDF8BE
:1003400004E0DDE9022304B0524263EB430370474B
:1003500053B94AB9002908BF00281CBF4FF0FF312C
:100360004FF0FF3000F074B9ADF1080C6DE904CE28
:1003700000F006F8DDF804E0DDE9022304B0704780
:100380002DE9F047089D04468E46002B4DD18A4248
:10039000944669D9B2FA82F252B101FA02F3C2F17B
:1003A000200120FA01F10CFA02FC41EA030E94400C
:1003B0004FEA1C48210CBEFBF8F61FFA8CF708FB2D
:1003C00016E341EA034306FB07F199420AD91CEB05
:1003D000030306F1FF3080F01F81994240F21C8137
:1003E000023E63445B1AA4B2B3FBF8F008FB10337F
:1003F00044EA034400FB07F7A7420AD91CEB0404B4
:1004000000F1FF3380F00A81A74240F20781644483
:10041000023840EA0640E41B00261DB1D440002308
:10042000C5E900433146BDE8F0878B4209D9002D6C
:1004300000F0EF800026C5E9000130463146BDE8F6
:10044000F087B3FA83F6002E4AD18B4202D3824260
:1004500000F2F980841A61EB030301209E46002D0F
:10046000E0D0C5E9004EDDE702B9FFDEB2FA82F264
:10047000002A40F09280A1EB0C014FEA1C471FFAC2
:100480008CFE0126200CB1FBF7F307FB131140EAA9
:1004900001410EFB03F0884208D91CEB010103F176
:1004A000FF3802D2884200F2CB804346091AA4B238
:1004B000B1FBF7F007FB101144EA01440EFB00FE0C
:1004C000A64508D91CEB040400F1FF3102D2A64571
:1004D00000F2BB800846A4EB0E0440EA03409CE710
:1004E000C6F12007B34022FA07FC4CEA030C20FABD
:1004F00007F401FA06F31C43F9404FEA1C4900FADD
:1005000006F3B1FBF9F8200C1FFA8CFE09FB181159
:1005100040EA014108FB0EF0884202FA06F20BD9CC
:100520001CEB010108F1FF3A80F08880884240F21C
:100530008580A8F102086144091AA4B2B1FBF9F060
:1005400009FB101144EA014100FB0EFE8E4508D95B
:100550001CEB010100F1FF346CD28E456AD90238E0
:10056000614440EA0840A0FB0294A1EB0E01A142C5
:10057000C846A64656D353D05DB1B3EB080261EB33
:100580000E0101FA07F722FA06F3F1401F43C5E90D
:10059000007100263146BDE8F087C2F12003D84043
:1005A0000CFA02FC21FA03F3914001434FEA1C4785
:1005B0001FFA8CFEB3FBF7F007FB10360B0C43EA77
:1005C000064300FB0EF69E4204FA02F408D91CEB27
:1005D000030300F1FF382FD29E422DD90238634425
:1005E0009B1B89B2B3FBF7F607FB163341EA0341C5
:1005F00006FB0EF38B4208D91CEB010106F1FF3814
:1006000016D28B4214D9023E6144C91A46EA00460A
:1006100038E72E46284605E70646E3E61846F8E69C
:100620004B45A9D2B9EB020864EB0C0E0138A3E7E5
:100630004646EAE7204694E74046D1E7D0467BE7C6
:10064000023B614432E7304609E76444023842E73E
:10065000704700BFDFF834D0002103E00C4B5B583B
:10066000435004310B480C4B42189A42F6D30B4AC4
:1006700002E0002342F8043B094B9A42F9D303F00D
:10068000FFFE23F0B9FE01F09FF87047000005203F
:10069000607E029000000020300100204003002016
:1006A000F8540120FEE7704708B500F0EBFDBDE807
:1006B000084000F06DBD00F0E7BD40687047416044
:1006C000704700004FF0E022D2F8FC3D43F0807309
:1006D000C2F8FC3D054B064AD3F8B01F0A43C3F8E5
:1006E000B02F1A6842F001021A607047001000E053
:1006F00055CEACC5511A01EB5301B1FBF3F0704775
:10070000014B5868704700BF001000E0704710B5FB
:1007100004460C2122F0BEFE204610BD036810B531
:100720001B69044631B19847A26863689B1A184454
:10073000606010BD9847A060FBE7704730B58DB092
:100740000D46144600212C2201A823F097FE01A893
:1007500003F0D8FD9DF8040030B1BDF8063001204B
:100760002B60BDF8103023600DB030BD10B50446CD
:10077000042122F08FFE204610BD000008B54FF482
:1007800088714FF4F07003F067FD28B1034B20210E
:10079000034A044823F0E6FD08BD00BF445502901B
:1007A000655502908F550290032823D8DFE800F0AA
:1007B000020B131A104B102110481A68B2FA82F279
:1007C000520904F01FBB0C4B40215A68B2FA82F266
:1007D00052090B48F5E7084B80219A68B2FA82F279
:1007E0005209F6E7044B40210648DA68B2FA82F271
:1007F0005209E6E7704700BF5C0300200004024096
:100800000008024000180240032823D8DFE800F067
:10081000020B131A104B102110481A68003A18BF27
:10082000012204F0EFBA0C4B40215A68003A18BF7D
:1008300001220B48F5E7084B80219A68003A18BF5F
:100840000122F6E7044B40210648DA68003A18BF57
:100850000122E6E7704700BF5C030020000402406D
:10086000000802400018024003280FD8DFE800F01B
:100870000206090B1021064804F0C9BA40210548B8
:10088000FAE78021FBE740210348F5E7704700BF06
:1008900000040240000802400018024008B5032886
:1008A00013D8DFE800F0020A0D0F1021084804F009
:1008B000A3FA431E5842584108BD40210548F6E7B7
:1008C0008021FBE740210448F1E70020F1E700BF69
:1008D00000040240000802400018024070B5084DB4
:1008E00000240126E0B2FFF7D9FF18B12B68012BD5
:1008F00018BF2E6001340435052CF3D170BD00BF44
:100900005C030020012380F8781080F8793070476C
:100910000020704741640039024B18BF0121197053
:10092000704700BFF348012000207047836B0BB174
:100930000846184770474FF6FF70704740680368D5
:100940009B6918477047000038B5044600F0DAFD8F
:10095000084923682046084DD3F88C309847002377
:10096000284684F84A30FFF7ADFE0123256184F85C
:10097000703038BD00F807C06C03002008B503686C
:100980000446D3F880309847236820469B6F9847E9
:1009900000F032F9236820461B6F98474FF48051CE
:1009A000064804F034FA0821054804F030FA00F053
:1009B00023F9236820461B6F9847F8E70020024080
:1009C0000028024010B5044609F0EEFB23682046DB
:1009D000D3F8AC30BDE81040184700F04DBD00F032
:1009E00051BD000070B500F0ABFD10490023C1F807
:1009F0008430BFF34F8FD1F8803043F6E074C3F3F7
:100A0000C900C3F34E335B0103EA0406024646EA1B
:100A10008275013AC1F87452F9D2203B13F1200FCC
:100A2000F2D1BFF34F8FBFF36F8F70BD00ED00E0C9
:100A300000F0FEBC00F090BD00F098BD00F002BDDB
:100A400008F01EBE10B504467C2122F023FD20468E
:100A500010BD90F87A301BB1406803681B681847D6
:100A60001846704790F834100D4B10B590F8784048
:100A70001A788C4209D03AB90A490B4A0888148876
:100A8000108001220C801A7010BD002AFCD0064A8A
:100A90000449148808880C8010800022F3E700BF06
:100AA000EC480120EA480120E848012070B50D46D5
:100AB000194635B9094B40F2D221094A094823F0B9
:100AC00051FCC0E90F52003A074B18BF01221A70BF
:100AD0000368BDE87040D3F88C3018470056029088
:100AE0003856029086560290F248012008B5094B0C
:100AF0001B888B4203D8084B1B88934205D9074BB0
:100B00009E21074A074823F02DFC074B1980074B0D
:100B10001A8008BDE8480120EA480120CB5602901F
:100B20002E57029086560290EE480120F048012090
:100B3000014608B5034B186801B1012109F04EFBCD
:100B4000012008BDF4480120034B00225A609A603E
:100B5000024A1A60704700BF6C03002024550290BF
:100B60000121002208B5084606F074F90A4B186006
:100B700028B90A4B28210A4A0A4823F0F3FB00222D
:100B80000421012006F02CFA074B186018B9074B16
:100B90002C21034AF0E708BD7C0300204C5802904A
:100BA00095580290C4580290780300201B59029077
:100BB000024B4FF0FF31186806F0A2B97C03002009
:100BC000014B186806F0D6B97C030020024B0021C7
:100BD000186806F095B900BF7C030020FFF7F0BF4E
:100BE0000023034803491A46006806F03FBA00BFD5
:100BF000780300200400002013B50023074C01A94E
:100C00001A46206806F074FA4FF0FF33002201A95B
:100C1000206806F06DFA02B010BD00BF7803002016
:100C200003685B6C18470120704703689B6A18478C
:100C3000FEE700000E4B82B01A6B42F400021A630A
:100C40001A6B02F400020192019A1A6942F400023E
:100C50001A611A6922F400021A61064B064A1A61E7
:100C6000064A5A614FF08062054B9A6002B07047A5
:100C70000038024070370020C50C0090310C009005
:100C800000E100E040F2EF3070470000054B4FF00C
:100C900080620360044BC3F88820BFF34F8FBFF31B
:100CA0006F8F7047C45A029000E100E010B504460F
:100CB0004FF45A61FFF7EAFF204622F0EBFB204693
:100CC00010BD0000024B1B68586803685B69184739
:100CD000F448012070B504460A4B0C300026254626
:100CE000602260602672667245F8203B294609F052
:100CF000CBFB04F55A63EE602435AB42FBD12046B2
:100D000070BD00BFC45A029008B50B290BD8DFE8AC
:100D100001F01206100A0A0A0A0808080808012049
:100D200008BD0520FCE7054B6F21054A054823F067
:100D300019FB0020F4E70220F2E700BF5D590290A2
:100D400078590290C259029008B50A2909D8DFE8FB
:100D500001F010060E080808080606060600012025
:100D600008BD054B9021054A054823F0FBFA0020F9
:100D7000F6E70220F4E700BF5D590290175A02908F
:100D8000C25902902DE9F8434F7F0C4681463946FF
:100D9000FFF7BAFF94F81E80054648464146FFF724
:100DA000B3FF414606464846FFF7CEFFA18A628B55
:100DB000424B521A1A649A61228B521A1A61E28AC1
:100DC000586342EA014220695A646268D863DA6073
:100DD000216894F81CC080294FEA0C6226D010D8F4
:100DE000202945EA020462D0402960D004295ED05F
:100DF0002A43324B474542F40032DA615BD0304A35
:100E000040E0B1F5807F07D0B1F5007FF0D142F42A
:100E1000003242F0090203E042F4003242F00A02DA
:100E2000DA61E2681A625E6258612AE0A4682A43C5
:100E3000211D42F40032D962DA6122785E62586183
:100E400042B1012A21D01F4B4FF48D711E4A1F4819
:100E500023F088FADA690120618822F47F4201399F
:100E600022F0100242EA0122DA61144BDA6942F000
:100E70002002DA61DA699206FCD410229A60002816
:100E8000BDD0134A1A60BDE8F8836288BCF1FF0048
:100E9000D96902F1FF3418BF012021F47F4222F00A
:100EA000100242EA042242F01002DA61DDE744F463
:100EB0000034DC61B7E742F20132E3E700B0024000
:100EC00001230100625A02907C5A0290C25902909A
:100ED0000123020070B50C46897FFFF735FF174BE1
:100EE000A68AE18A628B41EA06412569921B586312
:100EF0005964DD631A642668E168082E0DD19A6191
:100F00001A6158620E4A207F42EA0062DA610D4A95
:100F100019625D61DD601A6070BD0022D861480908
:100F20001A610A0A00F4FC60C1F3C40102F47842B9
:100F300002430A439A63044AEDE700BF00B002404F
:100F4000090001000123020001230300034B1A687A
:100F5000D207FCD423229A60704700BF00B0024041
:100F6000094B5A69D2030ED5BFF34F8F08440029AD
:100F7000A0EB010203DD2039C3F86822F7E7BFF3D5
:100F80004F8FBFF36F8F704700ED00E030B5104C0E
:100F90002568ED07FCD423250904FF2BA56041F04B
:100FA00001014FF0020565636164E0630AD00949FD
:100FB000656241EA0363E361074B22626061E060BE
:100FC000236030BDE561039BA363044BF8E700BFDA
:100FD00000B002400900010001000200010003000E
:100FE00030B50F4C2568ED07FCD423251204FF2BE8
:100FF000A56042F001024FF0020565636264E063A0
:10100000E16008D01B0643F00213E361054B656203
:101010006061236030BD044BE3610123F9E700BF49
:1010200000B0024001000200020002FF30B50B4C8C
:101030002568ED07FCD4232512041B06A56042F0A9
:101040000102022543F4003365636264E063E160FA
:10105000E361034B65626061236030BD00B0024014
:1010600001000200012070470C2070470C2303FB95
:101070000100083070470C2303FB01000830704763
:101080000120704742F28820704742F2882303FB18
:1010900001000830704742F2882303FB010008304A
:1010A0007047012070471020704700EB0110083096
:1010B000704700EB011008307047084601F020BA75
:1010C000034B10B50446036008F033F8204610BD0A
:1010D0007C5B029010B50446FFF7F2FF1421204616
:1010E00022F0D8F9204610BD034B10B5044603602A
:1010F00008F01FF8204610BD485B029010B504466A
:10110000FFF7F2FF42F29021204622F0C3F9204679
:1011100010BD0000034B10B50446036008F009F849
:10112000204610BD145B029010B50446FFF7F2FF95
:101130001821204622F0AEF9204610BD094B10B50B
:101140000446036000F50A503C30FFF7B9FF04F194
:101150002C00FFF7C9FF04F11400FFF7DBFF204666
:1011600010BD00BFB05B029008B50248FFF7E6FF74
:1011700008BD00BF8403002010B50446FFF7DEFF62
:1011800042F23041204622F085F9204610BD000091
:101190002DE9F34101F024F80024054601F024F87C
:1011A0002346014622462846009413F007F9274BB0
:1011B000274A2046274D1A6002F058FB264B274A43
:1011C00027489A6013F062F82B78BFF35B8FDB0738
:1011D00035D4284622F060F988B3224C224B04F122
:1011E000140004F12C08214F00F50B5623606060B9
:1011F000C4F80880E760266107F09CFF1C4B40465E
:10120000636107F097FF1B4B3846E36207F092FFDC
:1012100004F50053184A03F53470C3F8BC2202F0F9
:101220007FFC2246311F304602F098FB304601F029
:1012300067F9124823F0B4F8284622F039F910482B
:1012400002B0BDE8F041FFF77FBB00BF5849012065
:10125000F035002080030020F4350020B427002062
:101260000800002084030020B05B0290402600208C
:10127000145B0290485B02907C5B029069110090C5
:1012800074350020704700000148FFF777BB00BFAE
:101290007435002070B5244E244B254C3046254D26
:1012A0002360FFF717FD284618F09AF9224810F03E
:1012B00049FD224B00224FF4807121481A8683F8A1
:1012C00058205A6683F870205A67DC60C3E912120E
:1012D0001C49C3E91A121C4999671C490B604FF459
:1012E000F07101801A4801804FF488711948C3E9F0
:1012F0000422C3E90622C3E90822C3E90A22C3E99A
:101300000E22C3E91022C3E91422C3E91722C3E95C
:1013100001650180104883F8342001800F490A706C
:101320000F4A1A6070BD00BFD4270020F05502900C
:10133000D0270020F4350020B42700207435002089
:10134000E84801200100000100000101F4480120EB
:10135000EE480120EA480120F0480120EC48012035
:101360007C5702900148FFF791BC00BFD4270020B2
:101370000020704781807047C180704701817047AD
:10138000418170477047704770477047704710B48D
:10139000C4880368121B84885B6D091B12B25DF858
:1013A000044B09B218474FF6FF7383814FF0FF33A8
:1013B00003621368C3611060704790F825201AB16A
:1013C00090F8242002B118607047002070478B8885
:1013D000838001207047704780F82610704790F88E
:1013E00026007047002210B5B1F90840B1F90A1083
:1013F000028042808480C18010BD00220280428031
:101400008280C28070470177704780ED080A70477C
:1014100080F82410704780F825107047012070472D
:10142000983070478C3070478430704770470000A8
:10143000034B902283F85A2383F85823704700BF48
:1014400000E100E0094A0A49D3680A48C3F30A03E5
:10145000013B9BB20B801169C1F30A010139018084
:101460001364536B43F001035363704700680140FA
:101470008636002084360020014BD3F8AC0070473C
:1014800000680140024B0122C3F8AC105A62704759
:1014900000680140124A5369DB0370B51ED5002372
:1014A000C2F88430BFF34F8FD2F8803043F6E07437
:1014B000C3F3C900C3F34E335B0103EA04060146DC
:1014C00046EA81750139C2F87452F9D2203B13F112
:1014D000200FF2D1BFF34F8FBFF36F8F70BD00BFEE
:1014E00000ED00E07047704710B504462C2121F054
:1014F000D1FF204610BD10B50446BC2121F0CAFF23
:10150000204610BD70B5044608F00FF923685D6EE3
:101510000FF0EAFA01462046A8472368054A20460C
:10152000D3F888500023A2F57F31AC46BDE8704067
:10153000604700BF00FC03C008F0DEB808F0E8B860
:1015400008F0A4B808F005BA90F8252012B1036895
:101550005B69184770470000034B4FF080629A6048
:101560004FF080729A60704700E100E0084B4FF046
:101570008062C3F88820BFF34F8FBFF36F8F4FF0A7
:101580008072C3F88820BFF34F8FBFF36F8F70470F
:1015900000E100E0002370B5124E05468380124B37
:1015A0000360336893F858200AB1D86C00B9986882
:1015B0000368DB6A98473368B0FA80F4D86C640932
:1015C00030B10368DB6A9847002808BF44F0010483
:1015D0002CB9064B2C21064A064822F0C3FE2846A9
:1015E00070BD00BFF4480120C05C0290BC5B02905B
:1015F0001A5C0290535C029070B5244E3578BFF3AC
:101600005B8F15F001053FD1304621F045FF0028E2
:101610003AD01F4C1F4B04F134002561E584A562CC
:10162000A585C4E90035C4E9025510F0EAFD04F1CE
:1016300058000AF027FB184B2046A365174B40F8CB
:10164000843BFFF7A7FF164B1648C4F884302433B9
:10165000C4F89050C4F88C306423C4F89C50C4F88B
:10166000A850C4E928350023C4F8AC30C4F8B03021
:10167000C4F8B430C4F8B8300B4BC4F8983022F03A
:101680008FFE304621F014FF014870BD80360020E7
:1016900088360020CC6C0290E05C0290585D02908D
:1016A000806C02902D140090606C029010B5144C68
:1016B000236823B3134B144A1B6C11888B4213D13C
:1016C000124B198804F08AF8226892F86A300133C4
:1016D00082F86A30FFF784FA206808F065FD002080
:1016E000BDE81040FFF760B804F078F820680368A0
:1016F0001B6A98470020BDE81040FFF785B810BD71
:10170000F44801200068014086360020843600201D
:101710000149002007F072B8310B009008B5642031
:1017200005F07EFBFBE7000010B594B0102200210D
:1017300002240AA822F0A2FE1422002103A822F00B
:101740009DFE1F4B012119201A6C42F080521A6431
:101750001B6C03F080530193019B1A4B1A6842F4EF
:1017600040421A601B6803F440430293029B4FF40B
:101770008033CDE908134FF48003CDE90E434FF4D5
:10178000D873CDE9100308A8CDE9124404F07CF821
:1017900000B1FEE704F040F800B1FEE70F234FF47C
:1017A000A0520590072103A8CDE903344FF48053DC
:1017B000CDE9062304F054FA00B1FEE714B010BDE1
:1017C000003802400070004080B598B0102200211F
:1017D0004FF000580BA8012422F050FE1C2602F006
:1017E0001BFFBF4B0BA8ADF82C40032540F201179F
:1017F000CDE90C83BB4B0E9302F02CFF4FF040431E
:101800008DF82D4000240BA80C938DF834608DF8D2
:101810003740ADF83A4002F01DFF02230BA88DF8C7
:1018200037508DF82D301623ADF83A708DF83430DE
:1018300002F010FF4FF010430BA88DF8346004261F
:101840000C938DF82D508DF83740ADF83A4002F0EA
:1018500001FF17230BA88DF82D608DF834308DF81B
:101860003750ADF83A7002F0F5FE05230BA88DF85D
:1018700038408DF82D3013238DF8343002F0EAFE15
:10188000304602F0D7FEBFF34F8FBFF36F8F964AFB
:10189000C2F85042BFF34F8FBFF36F8F536943F4C9
:1018A00000335361BFF34F8FBFF36F8FC2F8844093
:1018B000BFF34F8FD2F8803043F6E074C3F3C90012
:1018C000C3F34E335B0103EA0406014646EA817521
:1018D0000139C2F86052F9D2203B13F1200FF2D146
:1018E000BFF34F8F536943F480335361BFF34F8F7E
:1018F000BFF36F8F02F0F4FD0024FFF715FF1422F1
:1019000000210BA822F0BAFD784B102178481A6B01
:1019100001274FF00308102542F0100240261A63F9
:101920001A6B02F010020092009A1A6B42F0020247
:101930001A631A6B02F002020192019A1A6B42F0CA
:1019400040021A631A6B02F040020292029A1A6B6A
:1019500042F400721A631A6B02F400720392039A43
:101960001A6B42F008021A631A6B02F00802049222
:10197000049A1A6B42F480621A631A6B02F4806252
:101980000592059A1A6B42F020021A631A6B02F054
:1019900020020692069A1A6B42F480721A631A6B3E
:1019A00002F480720792079A1A6B42F001021A63DE
:1019B0001A6B02F001020892089A1A6B42F0800238
:1019C0001A631A6B02F080020992099A1A6B42F0AC
:1019D00004021A6300221B6B03F004030A930A9BA0
:1019E00003F010FA00220821424803F00BFA00220B
:1019F0004FF48051404803F005FA0022C0213F48CF
:101A000003F000FA002240213D4803F0FBF90BA946
:101A10003748CDE90B57CDE90D4803F067F80823A7
:101A20000BA93448CDE90B37CDE90D4403F05EF83E
:101A30004FF480530BA93048CDE90B37CDE90D4465
:101A400003F054F8C0230BA92C48CDE90B37CDE99E
:101A50000D4803F04BF82A480BA9CDE90B67CDE9F7
:101A60000D4803F043F82748274B84800360076242
:101A7000C0E9054402F01AFE00B1FEE7234C244BF6
:101A8000C4E90200C4E90030C4E90A00C4E90C005A
:101A9000204602F02BFF00B1FEE73946204602F057
:101AA000DDFF034600B1FEE71A480BA91A4A83601E
:101AB000466183621195C0E900230422C0E9032531
:101AC0008022C0E90833C0E90623CDE90B55CDE9F2
:101AD0000D55CDE90F5504F029FCF8B1FEE700BF24
:101AE000120000030100010100ED00E00038024097
:101AF000000402400028024000200240000802408A
:101B0000001802404C37002000300240703700209F
:101B100000B0024058380020400100A002F082FBD3
:101B200002F034FB054600B1FEE7014634220BA863
:101B3000374C22F0A3FC374B2826352740F2152CD2
:101B400040F2352E2046A586256184F83650C4E93A
:101B500000350923C4E905630B23C4E9077340F288
:101B60001B13C4E909C340F21D13C4E90255C4E9BB
:101B70000BE303F03BFD00B1FEE74FF48873022155
:101B80004FF4F0724FF480650B90ADF85C008DF867
:101B90005E001693CDE90E31FF21CDE9101005212D
:101BA000CDE90C20CDE91402CDE9125102460BA972
:101BB000204603F0E6FD034600B1FEE716484FF469
:101BC000E132164903614362C0E900120C22C0E908
:101BD0000233C0E90523C0E9073304F0C6FF00B1B2
:101BE000FEE7FEF761FDFEF75EFD05F089F80C4AA1
:101BF00000210C4805F0BEF80B4B0C4A0021186080
:101C00000B4805F0B7F80B4B186005F093F8FEE7AA
:101C1000B0370020006801408C38002000100140DF
:101C2000DC5D02901D17009048370020B85D0290DF
:101C3000B7060090443700200268034B9A4201D156
:101C400002F060BC704700BF00100040FEE70000DB
:101C50000D4B82B00F216FF001001A6C42F08052E0
:101C60001A641A6C02F080520092009A5A6C42F484
:101C700080425A6400225B6C03F480430193019B11
:101C800002B002F075BC00BF00380240026882B0AA
:101C9000084B9A420BD1D3F8302803F5006342F485
:101CA00080521A631B6B03F480530193019B02B0B3
:101CB000704700BF003002400E4B07B502689A42E1
:101CC00015D1A3F5F04305215A201A6B42F4000206
:101CD0001A6300221B6B03F400030193019B02F0C3
:101CE00047FC5A2003B05DF804EB02F073BC03B06C
:101CF0005DF804FB00B0024070B5ACB0044614229D
:101D0000002106A822F0BAFB842200210BA822F0B1
:101D1000B5FB2268464B9A4240F088800823052094
:101D20000B93642310930223CDE9113001230BA8F8
:101D3000159304F073F808B1FFF788FF3D4B0224B8
:101D400000250E265A6C06A93B4842F080625A6470
:101D50005A6C02F080620092009A1A6B42F01002F4
:101D60001A631A6B02F010020192019A1A6B42F484
:101D700000721A631A6B02F400720292029A1A6BD2
:101D800042F480621A631A6B02F480620392039A2F
:101D90001A6B42F040021A631A6B02F0400204927E
:101DA000049A1A6B42F480721A631B6B03F48073FB
:101DB0000593059B1023CDE90634CDE908540A9616
:101DC00002F094FE4EF6FF7306A91C480A96CDE970
:101DD0000634CDE9085402F089FEF72306A9184815
:101DE0000A96CDE90634CDE9085402F07FFE4FF49F
:101DF000805306A91348CDE906340923CDE90854D8
:101E00000A9302F073FE4FF4464306A90E480A9661
:101E1000CDE90634CDE9085402F068FE58202A4680
:101E2000052102F0A5FB582002F0D4FB2CB070BDB8
:101E300000680140003802400010024000240240C7
:101E4000002802400018024000200240F0B5ABB06C
:101E500004461422002104A822F010FB8422002151
:101E600009A822F00BFB2268204B9A423CD1402368
:101E700009A8099303F0D2FF08B1FFF7E7FE1C4B56
:101E80000227002603255A6C072404A9194842F0AA
:101E900010025A645A6C02F010020192019A1A6BF5
:101EA00042F002021A631A6B02F002020292029AD4
:101EB0001A6B42F001021A631B6B089403F00103D2
:101EC0000393039B8023CDE90665CDE9043702F037
:101ED0000DFE4FF4007304A907480894CDE90437B8
:101EE000CDE9066502F002FE2BB0F0BD0010014006
:101EF000003802400004024000000240F0B5002318
:101F000087B003932A4B1E68002E4ED10122022770
:101F100003250C241A6001A9264B27489A6B42F02E
:101F200001029A639B6B03F001030093009B4FF641
:101F30008373CDE90454CDE9013702F0D7FD48F2AF
:101F4000331301A91D480594CDE90137CDE9036597
:101F500002F0CCFD4CF2037301A919480594CDE9B8
:101F60000137CDE9036502F0C1FD4FF63F0301A93A
:101F700014480594CDE90137CDE9036502F0B6FDBB
:101F8000242301A910480594CDE90137CDE9036563
:101F900002F0ACFD04230D480DEB03010594CDE9DF
:101FA0000137CDE9036502F0A1FD07B0F0BD00BF28
:101FB000183900200038024000100240001802408A
:101FC000000C024000140240001C024000080240C5
:101FD00008B5144B1A6822BB01224FF683711248D0
:101FE0001A60124A936B23F00103936302F062FEBE
:101FF00048F233110E4802F05DFE4CF203710D48B9
:1020000002F058FE4FF63F010B4802F053FE242128
:102010000A4802F04FFE04210948BDE8084002F0DA
:1020200049BE08BD143900200010024000380240AB
:1020300000180240000C024000140240001C024044
:1020400000080240214B1A6C42F0100270B51A646D
:1020500088B01B6C054601A903A803F01003029386
:10206000029B03F0BDFE069B4BBB03F099FE184E8E
:10207000184B336040F2E733F360174BB0FBF3F3D8
:10208000013B3046736000233361B360B36104F0F9
:1020900001FB044680B9304604F0AEF9044658B955
:1020A000362002F097FA0F2D0DD822462946362009
:1020B00002F05EFA094B1D60204608B070BD03F0C7
:1020C0006FFE4000D3E70124F6E700BF003802406E
:1020D0001C3900200010004040420F00400000204A
:1020E0007047FEE7FEE7FEE7FEE77047014804F0B1
:1020F000C5B900BF1C390020014803F0E5BA00BF94
:10210000B0370020014802F01FBC00BF703700202C
:102110000120704708B522F057F9162303604FF0ED
:10212000FF3008BD08B522F04FF916230360FEE723
:1021300070B50D4614460E46731B9C4201DC2046CA
:1021400070BDAFF3008006F8010BF5E770B50D46E2
:1021500014460E46731B9C4201DC204670BD16F8E7
:10216000010BAFF30080F5E74FF0FF3070474FF4FD
:10217000005300204B6070470120704700207047DB
:102180000A4A116808B5034609B90949116010687F
:10219000694603448B4206D922F016F90C230360EA
:1021A0004FF0FF3008BD1360FCE700BF6839002026
:1021B000F8540120704710B50446042121F06AF953
:1021C000204610BD08B519B1012905D0002008BD71
:1021D00001F098FB0068FAE701F094FB4068F6E72D
:1021E00000487047145E02900620704713B5002423
:1021F00051B1036801AA01948DF803409C680DF168
:102200000303A04702B010BD0846FBE7C089704732
:10221000008A7047C088704780887047807A00F0D5
:102220007F007047807AC009704700207047000027
:102230009FED010A704700BF00000000704710B515
:102240000446082121F026F9204610BD704770474A
:1022500000F598730868496803C370477047704772
:102260004160704770470000064BC0F84801C0F855
:102270004C310023C0F8503100F5A273C0F8403152
:10228000704700BF2D2300900123037270477047F1
:10229000704710B441680346C2689B68541001EB54
:1022A0006200D20748BF0A595DF8044B48BFD358B3
:1022B000184743682BB183682BB9C06800F0010050
:1022C0007047184670470120704710B504460C212E
:1022D00021F0E0F8204610BD10B50446102121F091
:1022E000D9F8204610BD10B504464FF4AE7121F068
:1022F000D1F8204610BD10B50EF0F6FB0368BDE81E
:102300001040DB6B184710B50446D0F8400158B1B7
:102310000368DB68984738B1D4F8400103689B68CC
:1023200098470023C4F8403110BD00002DE9F14F5B
:10233000D0E9555A0746A86803681B6A984742F2D5
:102340008723984205D8464BA321464A464822F0A7
:1023500009F8686803681B6A98470F2803D8434B3D
:10236000A421404AF2E7E86803681B6A98470B28F3
:1023700003D83F4BA5213B4AE8E7DFF8FC900EF07D
:10238000B3FB04300EF0D5FBD9F8000010B10368A0
:10239000DB689847D9F8000010B103681B689847BC
:1023A000DFF8D880D8F8000010B103685B6998475F
:1023B000D7F83C0110B103685B689847D8F8000073
:1023C00010B103681B689847D7F83C0110B1036847
:1023D0009B689847E86800214FF0000B03685B6A30
:1023E0009847244B0446C0F804B00360594680F86F
:1023F00008B0A86803685B6A9847064601F04CFB82
:102400006868594603685B6A98470546314601F09B
:10241000BDFAC9F80040C7F83C51C8F80060E5B102
:102420002B1DCAF8003030463368C5F808A0DB68B9
:10243000F56398472B6828461B6898472146304625
:1024400010F010FC236820461B699847236820463B
:102450005B6901B0BDE8F04F18472B46E1E700BFCC
:102460009C5E02902A5F0290286002906F6002904A
:10247000126102902C6202903C49012038490120EF
:10248000044B1B6893F858200AB1D86C00B99868BF
:10249000704700BFF4480120F8B5174604460E46C1
:1024A0000EF0E8FB124B00251C602946114B2360FF
:1024B000114BC4E95135114B1868C4E953550368F1
:1024C000C4E94F559B68C4E955769847284601F002
:1024D000CDF9FFF7D5FF18F0D6FEFFF7D1FF18F0C2
:1024E0004DFFFFF7CDFF18F055FF2046F8BD00BFA8
:1024F00048490120D8610290C0610290F44801204F
:10250000064BC0F84801C0F84C310023C0F85031E8
:1025100000F5A273C0F84031704700BF2D23009032
:10252000406A7047806A704770478B88C069DB0AD1
:102530000A6850F823001044704710B5C2B1137BED
:10254000B3B1547BD27A240204F4E0641443026AE7
:1025500098B202EB840213888B4202D192F90200F6
:1025600010BD05D80138043280B20028F3D1F7E756
:102570000020F5E710B504462C2120F08BFF204603
:1025800010BD000030B58BB00446BDF86050089512
:10259000BDF85C5007959DF8505006959DF84C503D
:1025A00005959DF8485004959DF8445003959DF875
:1025B000405002959DF83C500195BDF8385000956B
:1025C0000FF0DCFE064B20462360159BE361169B53
:1025D0002362199B63621A9BA3620BB030BD00BFDC
:1025E00050620290806A704770477047704770472A
:1025F000704730B585B00368044601816D460146D9
:10260000D3F884303C342846984795E8070084E89E
:10261000070005B030BD30B585B003680446418180
:102620006D460146D3F884303C342846984795E8F7
:10263000070084E8070005B030BD00220280428018
:102640008280C280704780F836107047036870B58A
:1026500004461B6B154698472368204629465B6E47
:10266000BDE87040184700207047806C704780F8C4
:102670002C10704710B40368046BD3F8A430624385
:1026800061435DF8044B1847D0ED0C7A0368F8EE0F
:10269000E77AD3F8A43020EE270AB5EEC00AF1EEAF
:1026A00010FA17DBB6EE007A30EE070ABDEEC07AFC
:1026B00017EE101A60EEA70AF5EEC00AF1EE10FA56
:1026C0001CDBF6EE007A70EEA70AFDEEE07A17EE5C
:1026D000902A1847BDEEC07AF8EEC76A17EE102AA6
:1026E000511E30EE660AF7EE086A30EE260ABDEE9D
:1026F000C00A10EE102A0A441146DBE7FDEEE07A2C
:10270000B8EEE77A17EE902A013A70EEC70AB7EEF4
:10271000087A70EE870AFDEEE00A10EE90CA944443
:102720006246D6E710B40368046BD3F8B030624356
:102730005DF8044B1847D0ED0C7A0368F8EEE77AA1
:10274000D3F8B03027EE800AB5EEC00AF1EE10FAE9
:1027500008DBF6EE007A30EE270AFDEEC07A17EEBF
:10276000902A1847FDEEC07AB8EEE77A17EE902A65
:10277000013A30EE470AB7EE087A30EE070ABDEEAE
:10278000C00A10EE10CA94446246EAE710B4036827
:10279000446BD3F8BC30624361435DF8044B184787
:1027A000D0ED0D7A0368F8EEE77AD3F8BC3020EE6E
:1027B000270AB5EEC00AF1EE10FA17DBB6EE007A82
:1027C00030EE070ABDEEC07A17EE101A60EEA70AC7
:1027D000F5EEC00AF1EE10FA1CDBF6EE007A70EEB0
:1027E000A70AFDEEE07A17EE902A1847BDEEC07AF0
:1027F000F8EEC76A17EE102A511E30EE660AF7EEA1
:10280000086A30EE260ABDEEC00A10EE102A0A440D
:102810001146DBE7FDEEE07AB8EEE77A17EE902A94
:10282000013A70EEC70AB7EE087A70EE870AFDEE3D
:10283000E00A10EE90CA94446246D6E710B40368EA
:10284000446BD3F8C03062435DF8044B1847D0EDB9
:102850000D7A0368F8EEE77AD3F8C03027EE800AE5
:10286000B5EEC00AF1EE10FA08DBF6EE007A30EEB3
:10287000270AFDEEC07A17EE902A1847FDEEC07ABF
:10288000B8EEE77A17EE902A013A30EE470AB7EE33
:10289000087A30EE070ABDEEC00A10EE10CA944462
:1028A0006246EAE7D0F82C31026B002B07DB02EB23
:1028B000430393FBF2F000EBD070401070476FF0D1
:1028C000010000FB0320013890FBF2F000EBD07018
:1028D000401040427047D0ED4B7AB8EEE70AD0ED99
:1028E0000C7AF8EEE77A80EE270A7047D0F82C01D0
:1028F0007047D0F83031026B002B07DB02EB43034B
:1029000093FBF2F000EBD070401070476FF00100C5
:1029100000FB0320013890FBF2F000EBD070401078
:1029200040427047D0ED4C7AB8EEE70AD0ED0C7A11
:10293000F8EEE77A80EE270A7047D0F8300170474A
:10294000D0F83431426B002B07DB02EB430393FBDF
:10295000F2F000EBD070401070476FF0010000FB08
:102960000320013890FBF2F000EBD07040104042A1
:102970007047D0ED4D7AB8EEE70AD0ED0D7AF8EE5B
:10298000E77A80EE270A7047D0F834017047D0F814
:102990003831426B002B07DB02EB430393FBF2F071
:1029A00000EBD070401070476FF0010000FB032077
:1029B000013890FBF2F000EBD070401040427047BD
:1029C000D0ED4E7AB8EEE70AD0ED0D7AF8EEE77A60
:1029D00080EE270A7047D0F838017047036870B559
:1029E0000446D3F888300D46164698472368324689
:1029F00029462046D3F89030BDE870401847036858
:102A0000D3F8943018470368D3F8D43018470368D4
:102A1000D3F8E03018470368002A10B4D3F8A43084
:102A2000046B0EDB04EB420292FBF4F101EBD1717B
:102A30004910B0F91E215DF8044B013A0A4449429D
:102A400018476FF0010101FB0241013991FBF4F1DC
:102A500001EBD17149104942EBE70368D3F83C31EF
:102A60001847026B03685143D3F84831184703688D
:102A7000D3F844311847D0ED0C7A0368F8EEE77AC2
:102A8000D3F8483127EE800AB5EEC00AF1EE10FA0D
:102A900008DBF6EE007A30EE270AFDEEC07A17EE7C
:102AA000901A1847FDEEC07AB8EEE77A17EE902A32
:102AB000511E30EE470AB7EE087A30EE070ABDEE37
:102AC000C00A10EE102A0A441146EAE7C0F83C1189
:102AD00070470368D3F850311847036810B5D3F82E
:102AE0005C31044698470028236B07DB03EB40006A
:102AF00090FBF3F000EBD070401010BD6FF00102BE
:102B000002FB0030013890FBF3F000EBD070401076
:102B10004042F2E70368D3F858311847036810B50C
:102B2000D3F85C310446984707EE900AB8EEE70AFE
:102B3000D4ED0C7AF8EEE77A80EE270A10BDD0F8D3
:102B40003C017047026B03685143D3F86831184762
:102B5000D0ED0C7A0368F8EEE77AD3F8683127EE07
:102B6000800AB5EEC00AF1EE10FA08DBF6EE007A44
:102B700030EE270AFDEEC07A17EE901A1847FDEEE8
:102B8000C07AB8EEE77A17EE902A511E30EE470A67
:102B9000B7EE087A30EE070ABDEEC00A10EE102A32
:102BA0000A441146EAE7C0F840117047036810B5BF
:102BB000D3F87431044698470028236B07DB03EBF6
:102BC000400090FBF3F000EBD070401010BD6FF0B0
:102BD000010202FB0030013890FBF3F000EBD070F3
:102BE00040104042F2E7036810B5D3F87431044650
:102BF000984707EE900AB8EEE70AD4ED0C7AF8EEA3
:102C0000E77A80EE270A10BDD0F8400170470368CC
:102C10000029026BD3F8843110B504460EDB02EBB9
:102C2000410191FBF2F101EBD171491009B220464B
:102C30009847D4E94F2302FB003010BD6FF001002C
:102C400000FB0121013991FBF2F101EBD171491037
:102C50004942EBE7006B7047406B70470368D3F85D
:102C6000483118470368D3F85C311847026B036892
:102C70005143D3F814311847036870B5D3F818518D
:102C80000446D0F84461D3F8803198472B4656F873
:102C900020102046BDE870401847B0F91C21B0F95B
:102CA0001E31934207DBB0F94C31194491FBF2F02D
:102CB00002FB101109B20846704748017047C16213
:102CC0007047C06A70470120704770477047C06BFB
:102CD00018B10368D3F8803018477047B2F818115C
:102CE00030B5B2F916516C18B2F84010B2F9422062
:102CF000091B0024058044808180C28030BD028091
:102D00008380BDF90020BDF904304280C380704744
:102D10000B680846D3F8EC3018470B680846D3F820
:102D2000F8301847B1F916017047B1F81601B1F83B
:102D300018310344B1F84000C01A00B27047B1F92D
:102D400014017047B1F81401B1F81A310344B1F815
:102D50004200C01A00B270470B6808461146D3F80B
:102D600018311847704770477047704710B50446D0
:102D70004C2120F08FFB204610BD10B504464021A9
:102D800020F088FB204610BD10B504464FF4397181
:102D900020F080FB204610BD13B503460846D3E95A
:102DA0000C1403680191D3F89430984701990246B6
:102DB000204602B0BDE8104009F08EBB034B10B5B1
:102DC000044603600CF0DEF9204610BD60680290F6
:102DD000074B07B5036001900CF0D4F9019842F25B
:102DE000842120F057FB019803B05DF804FB00BF7D
:102DF0006068029008B5FEF7A7FB08BD08B590F81B
:102E00002C300BB1FEF7A0FB08BD00000A1E10B568
:102E100003DBB0F91E41944206DC084B40F23961F5
:102E2000074A084821F09EFA0368D0F84441D3F8D5
:102E30008031984754F8200010BD00BFB062029066
:102E4000D3620290226302900B1E10B5044603DB8E
:102E5000B0F91E219A4206DC074B40F23361074A63
:102E6000074821F07FFA0368D3F884319847D4E902
:102E70004F2302FB003010BDB06202907F630290CE
:102E800022630290036870B55E6B0446114B8DB2ED
:102E90001B682BB9104B6C21104A114821F062FAC3
:102EA0001049828D0988914203D80F4B6D210B4A3E
:102EB000F3E713F812200D4B1B6853F82200036848
:102EC0001B6B9847281A334601B22046BDE8704074
:102ED000184700BF4C490120CE6302901064029055
:102EE0004B640290504901209264029054490120A1
:102EF00000224FF0FF318260C0E900217047036873
:102F000070B504461B6B1546984723682046294632
:102F10005B6BBDE87040184770B504461D46BDF9AF
:102F20001060FFF7ECFF2368294620469B6B98470B
:102F3000236831462046DB6BBDE87040184700002F
:102F40000022C0E90122C0E90322C0E90522C0E94C
:102F500007224FF480728284014A0260704700BFEA
:102F60001465029010B504462622002121F086FA4D
:102F70002046FFF7E5FF044B20462360FF2384F83B
:102F800026300023A36210BD4873029010B504469A
:102F90002622002121F072FA2046FFF7D1FF0A4BCA
:102FA0004FF47F0220462360084BA3624FF6FF7365
:102FB000A3850023C4E90C324FF0FF322387E3637B
:102FC000C4E9102310BD00BFB8720290945E029055
:102FD00037B501AB15460FF0CFFA00282A46019904
:102FE0004FEA40144FF0200004DB0FF0E4FA2044D5
:102FF00003B030BD0FF0DFFA201AF9E770B5B0F971
:1030000014410E46B0F81A516319B0F84250ED1A47
:103010002DB22C44691ED0E94D32013CD21AF01A6F
:10302000FFF7D6FFC0EB441070BD38B50446084624
:10303000B4F81831B4F816110B44B4F84010C91A9A
:10304000D4E94B5209B2521B401B0139FFF7C0FFB4
:10305000B4F9163100EB431038BD000010B504463A
:1030600008F010FE0A4A0023204622600122E36293
:1030700084F84030A4F84230A364C4E90C23054A24
:10308000A2634FF6FF72A2872E22A4F8442010BD3F
:1030900018720290945E029010B504462622002118
:1030A00021F0ECF92046FFF74BFF00232046A362F6
:1030B00084F82C30012384F82430044B23604FF62D
:1030C000FF73E385238684F8323010BDB07302901D
:1030D0002DE9F04F044600254FF6FF76974FA246A4
:1030E00004F16C0904F1CC084FF0010B2DED0A8BB3
:1030F0008DB00FF00BFC924BE5634AF8403B504615
:10310000FFF730FF262229464846ADF8286021F017
:10311000B5F94846FFF714FF8A4B0AA94846E3660B
:10312000BDF8283084F8946004F5D476A4F8923081
:103130000BF022F904F1980318460AEE903AFFF7D3
:1031400011FF814B4046C4F8C450C4F89830A4F82D
:10315000C850FFF71BFF04F58C73C4F8CC701846F9
:10316000C4F8145108EE903AFFF710FF04F5B0735D
:10317000184609EE103AFFF709FF6521304609F0BD
:1031800047F9724B64222946C4F8A83104F53E730E
:103190003046C4E9BB35C4E9B9B5FFF76BFA6C4BEF
:1031A000A4F8F452C4F8A83104F28C4318460BEE8C
:1031B000103A08F067FD0A23C4F8B854C4F8C034C4
:1031C000644BC4F8BCB4C4F88C3404F2CC4384F827
:1031D000C4B41846C4F8C8540BEE903AFFF73EFF4B
:1031E0005D4BC4F8CC3404F5A36318460CEE103ADA
:1031F000FFF734FF594BC4F8183504F264531846EE
:103200000CEE903A08F03EFD554BC4F864354FF093
:10321000020384F8903504F2945318460393FEF7A2
:10322000B9F9504BC4F8A055C4F894352433C4F808
:103230009C3504F5B563184609EE903AFFF72CFF6C
:1032400004F2DC5318460AEE103AFFF725FF04F5A6
:10325000C263184608EE103AFFF798FE4FF4E151AA
:1032600004F26460C4F81076C4F85856271D0BF0B9
:103270007FFF4FF488732A462946504600934FF447
:10328000F073FFF749FE4FF07F4351463846A3667F
:1032900005F062FF2A4648462946FFF730FE4846B9
:1032A0000AA9ADF828500BF067F8494638460DF1E9
:1032B000100905F051FF4FF488732A4629461AEE8B
:1032C000900A00934FF4F073FFF726FE4FF07F4310
:1032D0004FF0FF321AEE901A3846A4F8C8B0C4E98D
:1032E000302305F039FF9D224FF4D6714046FFF799
:1032F00006FE4FF07F4341464846C4F8FC30D4F800
:10330000CC30A4F80051D3F88430984704F5847386
:1033100099E8070083E80700134B1B682BB9134B90
:103320006021134A134821F01DF8134B1B88022B10
:1033300026D8124B61210E4AF4E700BF7C6502904B
:10334000606802908C74029024740290906D0290D8
:10335000C46602900C660290D87002907871029058
:1033600058700290806C02904C490120CE6302900C
:10337000D06402904B640290504901209264029004
:10338000BC4B02214FF0040A186800F0ABFAC4F8F5
:10339000140140460AF0A4FDB74B40460AA90A931F
:1033A000ADF82CA00AF0BCFD4146384605F0D4FE2D
:1033B000642240F2971118EE900AFFF7A0FD4FF03B
:1033C0007F414846A4F84C51C4F8481118EE901AB1
:1033D0000AF0FEFA04F5AA734FF0060899E8070010
:1033E00083E807004FF005010AA8A34BADF82C10A5
:1033F000014618EE900A0A930AF092FD18EE901A10
:10340000384605F0A9FE8D224FF4D37119EE100A4B
:10341000FFF775FD4FF07F4019EE101AA4F8945194
:10342000C4F8900148460AF0D3FA04F5CE7399E83F
:10343000070083E807000AA88F4BADF82C800146EF
:1034400019EE100A0A930AF06BFD19EE101A3846AD
:1034500005F082FE4FF4887040F2A3132A462946F5
:1034600000903046FFF758FD2A4659463046FFF790
:10347000B5FA294664223046FFF7FCF816231C22D1
:103480000A2130460093132308F073FF2B4642466F
:1034900002213046CDF8008008F06EFE4FF4E17254
:1034A00032213046FFF772F94FF03208D4F8BC14DD
:1034B0004FF07F405A4684F8C4B4C4F8B80408FBFF
:1034C00001F00028B8BF4042C4F8C00409F004F875
:1034D0001BEE101AC4F8C0043046C4F8BCB408F09F
:1034E00056FED4F8FC140A204FF07F42A4F808B529
:1034F0004843C4F8F8245A460028B8BF4042C4F8EC
:10350000000508F0E9FF1BEE901AC4F800053046EC
:10351000C4F8FCB408F05FFED4F848154FF07F42C1
:10352000A4F8545508FB01F0C4F844255A46002875
:10353000B8BF4042C4F84C0508F0CEFF1CEE101A8C
:10354000C4F84C053046C4F848B508F032FE4B4B81
:1035500003994FF00200C4F8A0354CF2A203C4F85E
:103560008C151CEE901AA4F8A43584F8900530460A
:1035700008F00DFE3146384605F0EEFD262240F2F9
:10358000A31119EE900AFFF7BAFC4FF005010AAA41
:1035900019EE900AADF82410ADF8281009A90AF028
:1035A0001DFD19EE901A384605F0D6FDBB2240F2FB
:1035B000A3111AEE100AFFF7A2FC0AAA09A91AEE33
:1035C000100AADF824A0ADF828A00AF007FD1AEE05
:1035D000101A384605F0C0FD742240F2A91118EE09
:1035E000100AFFF78CFC4FF07F41D4F810364846A4
:1035F000C4F8401618EE101AD3F88430A4F84456D4
:1036000004F25C65984704F24C6399E8070083E88C
:1036100007001B490B68002B3FF481AE19490B884A
:10362000032B7FF686AE134A0321106800F05AF987
:10363000154A03465146284610F01AFE18EE100AA5
:10364000C4F858560AF04CFC0B4B0AA918EE100AA5
:103650000A930723ADF82C300AF062FC384618EEC6
:10366000101A05F079FD20460DB0BDEC0A8BBDE8BF
:10367000F08F00BF58490120945E02901616C4FFD7
:103680004C49012050490120086502907047000014
:1036900030B5174D8FB02C78BFF35B8F14F0010459
:1036A00022D128461FF0F8FEF0B13F230122114934
:1036B0000993114B11480893114B0A940594CDE9D5
:1036C00006430423CDE903320C23132200930E2377
:1036D000CDE90B44CDE90144FEF754FF094820F041
:1036E0005FFE28461FF0E4FE04480FB030BD00BF67
:1036F0006C390020C8031090287E02907039002099
:10370000307E02908D3600907047000030B5164D27
:103710008FB02C78BFF35B8F14F0010421D12846C1
:103720001FF0BAFEE8B13F23012210490993104B64
:1037300010480893104B0A940594CDE906430423DE
:10374000CDE9033210230C220093CDE90B44CDE9DF
:103750000144FEF717FF094820F022FE28461FF01B
:10376000A7FE04480FB030BD9C390020D40410904F
:103770002C7E0290A0390020347E02900937009000
:1037800000207047002070470EB403B503AB002142
:1037900053F8042B01930EF0F5F802B05DF804EB3A
:1037A00003B070470CB407B504AB53F8042B019376
:1037B0000EF0E8F803B05DF804EB02B070470000CB
:1037C000436C10B5044673B3038F2BB9184BC52156
:1037D000184A194820F0C6FDC38E00EB43035B8CEA
:1037E0000BB30FF09DFF238F012B03D8134BCB217D
:1037F000134AEEE7E28E40F63F10531C9BB2092BB2
:10380000194688BFA3F10A0104EB4101498C8142AA
:1038100009D10A2B04EB420228BF0023508C04EB91
:103820004303588451842046BDE810400FF07ABE0F
:103830008C68029095680290406902908A690290B3
:10384000986902900FF037BE10B586B002AC84E8DC
:1038500006001A460AAB214605930193099B009383
:10386000089B0CF025FD06B010BD000038B518BB54
:10387000124B13481B681349B3B11A689C681A4469
:103880001C4402605A681A440A600F4B00221A80D6
:1038900000F038F8054600F033F80C4B1C600C4B78
:1038A0001D600C4B188007E00B4B03600B4B0B604B
:1038B0000B4B1C68002CE8D138BD00BFCC39002070
:1038C000D0390020D4390020D83900204C490120BB
:1038D00054490120504901209C0510907C0510900E
:1038E000EC051090044B1B6853F82100034B1B6838
:1038F00003EB4000704700BFD4390020D0390020CE
:103900000820704700487047DC39002010B5044C8F
:10391000FFF7BEFE2060FFF7F9FE606010BD00BF3C
:10392000DC39002010B5002404600C6014601C60B9
:1039300010BD704710B504464FF4AE711FF0AAFDDC
:10394000204610BD10B50446D0F8580100F0EBF841
:103950002046BDE810400DF049B9000010B50446FE
:10396000FEF79AFD014B2046236010BD746A029059
:10397000704704387047704710B5044610211FF097
:1039800089FD204610BDA0F10400F5E70022C160CA
:103990008260044A10B502F10804203204604260DB
:1039A00010BD00BFC06A029070470000034B10B505
:1039B00004460360FFF702FA204610BDF06A029049
:1039C00010B50446FFF7F2FF42F2882120461FF0AF
:1039D00061FD204610BD000000F50053D3F88412AD
:1039E00070B54D1C04462DED028BC3F88452EB07D5
:1039F00048D4D0F8DC61D0EDB87A07EE106AF8EE62
:103A0000E77AB8EEC77A87EE878A07EE905AB8EE63
:103A1000E70ADFED1E7A20EE270A1FF0A7FDF7EE7A
:103A2000007A9FED1B7A4FF6FF731A4A04F5D470A3
