:020000040800F2
:10000000B0080020F51E0008CD1E0008CF1E000815
:10001000D11E0008D31E0008D51E000800000000F5
:10002000000000000000000000000000D71E0008D3
:10003000D91E000800000000DB1E0008DD1E0008BD
:100040001D1F0008211F0008251F0008291F000888
:100050002D1F0008311F0008351F0008391F000838
:100060003D1F0008411F0008451F0008491F0008E8
:100070004D1F0008511F0008551F0008591F000898
:100080005D1F0008611F0008651F0008691F000848
:100090006D1F0008711F0008751F0008791F0008F8
:1000A0007D1F0008811F0008851F0008891F0008A8
:1000B0008D1F0008911F0008951F0008991F000858
:1000C0009D1F0008A11F0008A51F0008A91F000808
:1000D000AD1F0008B11F0008B51F0008B91F0008B8
:1000E000BD1F0008C11F0008C51F0008C91F000868
:1000F000CD1F0008D11F0008D51F0008D91F000818
:10010000DD1F0008E11F0008E51F0008E91F0008C7
:10011000ED1F0008F11F0008F51F0008F91F000877
:10012000FD1F000801200008052000080920000824
:100130000D200008112000081520000819200008D3
:100140001D20000821200008252000082920000883
:100150002D20000831200008352000083920000833
:100160003D200008412000084520000849200008E3
:100170004D20000851200008552000085920000893
:100180005D20000861200008652000086920000843
:100190006D200008712000087520000879200008F3
:1001A0007D200008812000088520000889200008A3
:1001B0008D20000891200008952000089920000853
:1001C0009D200008A12000087CB50400012600F055
:1001D000FBFB0500002C01D101205AE0206A4028D9
:1001E00094F84000012801D1022052E0012084F857
:1001F000400094F8410000280AD1002084F8400013
:10020000200000F0E0FB41F28831200000F0B4FA59
:100210002068006830F4F850A168491E50EA0120B7
:1002200021680860A06C00902B0000222021200093
:1002300000F0A4FA0100C9B2002926D121680A6899
:1002400014490A40616852EA0162E1680A43E169BF
:100250000A43216A0A4321680A6021684A680E49F4
:100260000A40216952EA014261690A43A1690A43CD
:1002700021684A602168096851F001012268116013
:1002800000216164012184F84110002184F84010AC
:10029000C0B276BD2FFFFF00FEF8E0FF10B50400EE
:1002A000002C01D101201AE094F84000012801D16E
:1002B000022014E0012084F8400020680068400813
:1002C000400021680860200000F084FB002060648A
:1002D000002084F84100002084F84000002010BD78
:1002E0002DE9F84304000D0016005FF0010800F04E
:1002F0006BFB0700A8690028E8690028286A002825
:1003000094F84000012801D102203DE0012084F84A
:10031000400094F8410001282FD1002060640220A1
:1003200084F8410000963B0000222021200000F0CC
:1003300025FA81464846C0B2002820D10022290073
:10034000200000F044FA686A002812D100963B00B1
:1003500001220221200000F011FA81464846C0B275
:1003600000280CD102202168C860012084F84100D7
:1003700005E0012084F8410001E05FF0020900205F
:1003800084F840004846C0B2BDE8F2832DE9F84346
:1003900005000C001600002700F016FB80462868B8
:1003A00010F1200995F84000012801D102205EE0FB
:1003B000012085F8400095F84100012850D1002027
:1003C0006864002C45D0122085F841002868006937
:1003D000401CE86228680069401CA8626C622868BA
:1003E000406930F0406029684861E86A002815D00B
:1003F0000096434601220421280000F0BFF90700BF
:100400003800C0B2002809D1686A411C69620078CE
:1004100089F80000E86A401EE862E6E73800C0B2EA
:10042000002812D10096434601220221280000F044
:10043000A5F907003800C0B2002806D102202968BB
:10044000C860280000F04CF90700012085F8410041
:1004500008E0686C50F0080068640120070001E0C3
:1004600002200700002085F840003800C0B2BDE837
:10047000F2832DE9FC4705000C001600002700F070
:10048000A3FA80462868D0F81890286810F1200A4E
:1004900095F84000012801D1022063E0012085F891
:1004A000400095F84100012855D100206864002CD7
:1004B0004AD0222085F8410028680069401CA863C2
:1004C00028680069401C68632C632868406930F024
:1004D000406050F08060296848612868C0F8189032
:1004E000A86B002815D0009643460122062128005B
:1004F00000F044F907003800C0B2002809D1286B89
:10050000411C29639AF800100170A86B401EA86373
:10051000E6E73800C0B2002812D100964346012217
:100520000221280000F02AF907003800C0B2002894
:1005300006D102202968C860280000F0D1F8070021
:10054000012085F8410008E0686C50F008006864FC
:100550000120070001E002200700002085F840008C
:100560003800C0B2BDE8F6872DE9FC4704000D0055
:1005700016001F005FF0010800F026FA8146A86906
:100580000028E8690028286A002894F8400001281B
:1005900001D102204CE0012084F8400094F8410091
:1005A00001283ED100206064422084F84100009779
:1005B0004B4600222021200000F0E0F88246504601
:1005C000C0B200282FD13068216888627068216825
:1005D0004862B0682168C8622068016831F440014F
:1005E0003069014351F4800120680160F068A8621D
:1005F0005FF000622900200000F0E9F800974B4608
:1006000001220821200000F0B9F882465046C0B20D
:10061000002808D108202168C860012084F8410022
:1006200001E05FF0020A002084F840005046C0B2AA
:10063000BDE8F6872DE9F84304000D0016005FF0D1
:10064000010800F0C1F90700A8690028E86900283E
:10065000286A002894F84000012801D102203DE0DA
:10066000012084F8400094F8410001282FD1002097
:100670006064822084F84100A06C00903B0000225E
:100680002021200000F07AF881464846C0B20028B8
:100690001FD12068016831F00801706801432068AB
:1006A0000160706808280BD1306821680863102049
:1006B0002168C8602068006850F4801021680860D4
:1006C0005FF040622900200000F081F801E05FF057
:1006D0000209002084F840004846C0B2BDE8F28319
:1006E0007CB50400002500F06FF9060094F8410085
:1006F00080073ED5002084F840002068006840074D
:1007000011D52068006830F0040021680860E06BB3
:1007100000F07EF905002800C0B2002803D0606C0C
:1007200050F0040060642068006850F00200216806
:100730000860A06C0090330001220221200000F02C
:100740001DF805002800C0B200280BD10220216846
:10075000C860A06C0090330000222021200000F02F
:100760000DF805002800C0B2002802D1012084F84D
:1007700041002800C0B276BD816470472DE9F04188
:1007800005000E0090461F00069C286880683042D5
:1007900001D0012000E000204146C0B2C9B2884229
:1007A00012D014F1010FF0D0002C04D000F00CF99D
:1007B000C01B8442E9D2042085F84100686C50F0E7
:1007C00001006864012000E00020BDE8F08110B461
:1007D0004B6A002B06D0B2F1406F03D08B6A5B1ED0
:1007E000046823618B69002B79D00B6A002B3ED003
:1007F0008B680468E361CB69002B20D0CC6A0B6B5B
:100800001C434B6B1C434B6A1C434B6954EA8344A7
:100810000B691C430B6A1C43CB681C43CB691C430C
:100820008B691C430B681C43144303685C61B2F181
:10083000406F00F0C6804B680468A361C1E0CC6AD9
:100840000B6B1C434B6B1C434B6A1C434B6954EAB8
:1008500083440B691C430B6A1C43CB691C438B69A3
:100860001C430B681C43144303685C61A9E0CB691B
:10087000002B1ED0CC6A0B6B1C434B6B1C434B6A8A
:100880001C434B6954EA83440B6A1C43CB681C43EA
:10089000CB691C438B691C430B681C4314430368DE
:1008A0005C61B2F1406F00F08C804B680468A3611A
:1008B00087E0CC6A0B6B1C434B6B1C434B6A1C439D
:1008C0004B6954EA83440B6A1C43CB691C438B6914
:1008D0001C430B681C43144303685C6171E00B6AA2
:1008E000002B39D08B680468E361CB69002B1DD0E5
:1008F000CC6A0B6B1C434B6B1C434B6A1C434B6910
:1009000054EA83440B691C430B6A1C43CB681C43A9
:10091000CB691C438B691C43144303685C61B2F1CF
:10092000406F4ED04B680468A3614AE0CC6A0B6B01
:100930001C434B6B1C434B6A1C434B6954EA834476
:100940000B691C430B6A1C43CB691C438B691C431A
:10095000144303685C6134E0CB69002B1BD0CC6A84
:100960000B6B1C434B6B1C434B6A1C434B6954EA97
:1009700083440B6A1C43CB681C43CB691C438B69C3
:100980001C43144303685C61B2F1406F19D04B689B
:100990000468A36115E04B6A002B12D0CC6A0B6B84
:1009A0001C434B6B1C434B6A1C434B6954EA834406
:1009B0000B6A1C43CB691C438B691C4314430368BB
:1009C0005C6110BC7047704701480068704700BF09
:1009D000AC000020704730B4002513E050F8042B21
:1009E000D30744BFA9F101039A18091F042942F84B
:1009F000045BFAD213468C0744BF15809B1CC907C1
:100A000048BF1D7050F8041B0029E7D130BC704767
:100A100070B50400A56DFFF7D7FF060094F8350008
:100A2000022806D080206065002084F83400012070
:100A30003BE02068006830F01600216808602068FC
:100A4000406930F0800021684861206C002802D1A4
:100A5000A06C002805D02068006830F008002168EC
:100A6000086020680068400840002168086020682D
:100A70000068C0070ED5FFF7A7FF801B0628F6D336
:100A800020206065002084F83400032084F83500BD
:100A900003200AE03F21E06D8140A960002084F836
:100AA0003400012084F83500002070BD2DE9FC41A0
:100AB00004000026002C01D10120D8E12078C007D5
:100AC0006DD5DFF89405016811F00C01042909D0F7
:100AD000006810F00C0008280ED1DFF880050068CF
:100AE000400209D5DFF86C050068800357D56068BF
:100AF000002854D10120BAE16068B0F5803F06D1EA
:100B0000DFF85005016851F48031016026E060682B
:100B100000280AD1DFF83C05016831F4803101601A
:100B2000016831F48021016018E06068B0F5A02F01
:100B30000AD1DFF82005016851F4802101600168C5
:100B400051F48031016009E0DFF80805016831F4F3
:100B500080310160016831F4802101606068002803
:100B60000ED0FFF731FF0500DFF8E80400688003CE
:100B700015D4FFF729FF401B6528F5D3032076E144
:100B8000FFF722FF0500DFF8CC040068800306D5DC
:100B9000FFF71AFF401B6528F5D3032067E1207893
:100BA000800752D5DFF8B004016811F00C0F09D0AE
:100BB000006810F00C00082816D1DFF8A0040068C7
:100BC000400211D4DFF88C040168890704D5E1687C
:100BD000012901D001204AE1016831F0F8012269C0
:100BE00051EAC201016030E0E06800281AD0DFF865
:100BF0006474386850F001003860FFF7E5FE0500C6
:100C00003868800706D4FFF7DFFE401B0328F7D3C0
:100C100003202CE1386830F0F800216950EAC10067
:100C2000386012E0DFF82C74386840084000386003
:100C3000FFF7CAFE05003868800706D5FFF7C4FE37
:100C4000401B0328F7D3032011E12078000728D5A3
:100C50006069002812D0DFF80874386850F001008D
:100C60003860FFF7B1FE05003868800719D4FFF738
:100C7000ABFE401B0328F7D30320F8E0DFF8E07356
:100C80003868400840003860FFF79EFE050038686D
:100C9000800706D5FFF798FE401B0328F7D30320F3
:100CA000E5E02078400740F18780DFF8C0733868BE
:100CB000C0000AD4386850F080503860386810F0AE
:100CC00080500090009801200600DFF8A483D8F837
:100CD0000000C00513D4D8F8000050F48070C8F8A4
:100CE0000000FFF771FE0500D8F80000C00506D42B
:100CF000FFF76AFE401B6528F6D30320B7E0A06823
:100D0000012806D1DFF86C03016851F00101016090
:100D100025E0A06800280AD1DFF8580301684908D7
:100D200049000160016831F00401016017E0A0682A
:100D300005280AD1DFF83C03016851F00401016085
:100D4000016851F00101016009E0DFF82803016842
:100D5000490849000160016831F004010160A068A0
:100D6000002810D0FFF730FE0500DFF80803006808
:100D7000800719D4FFF728FE401B41F289318842D1
:100D8000F3D3032073E0FFF71FFE0500DFF8E40252
:100D90000068800708D5FFF717FE401B41F2893134
:100DA0008842F3D3032062E03000C0B2012803D1AF
:100DB000386830F080503860A069002856D0DFF8DD
:100DC0009802006810F00C0008284DD0A069022895
:100DD00037D1DFF88072386830F080703860FFF704
:100DE000F3FD80463868800107D5FFF7EDFDB0EBD5
:100DF00008000328F6D3032039E0E169206A0143A3
:100E0000606A51EA8011A06A4008401E51EA004120
:100E1000E06A51EA006151F00051DFF840020160E0
:100E2000386850F080703860FFF7CEFD05003868F4
:100E300080011BD4FFF7C8FD401B0328F7D3032014
:100E400015E0DFF81072386830F080703860FFF716
:100E5000BBFD05003868800108D5FFF7B5FD401BD4
:100E60000328F7D3032002E0012000E00020BDE8C2
:100E7000F6812DE9F04104000D000026002C01D17F
:100E800001209FE0DFF8F071386810F00F00A842F1
:100E90000BD238680009000128433860386810F028
:100EA0000F00A84201D001208CE02078800719D5DE
:100EB0002078400705D5DFF8A001016851F4E05122
:100EC00001602078000705D5DFF88C01016851F436
:100ED00060410160DFF880110A6832F0F002A0681A
:100EE00002430A602078C00737D56068012806D120
:100EF000DFF860010068800311D4012062E06068BF
:100F0000022806D1DFF84C010068800107D40120D7
:100F100058E050480068800701D4012052E0DFF813
:100F20003881D8F800108908890060680143C8F842
:100F30000010FFF749FD0600D8F8000010F00C0083
:100F40006168B0EB810F08D0FFF73EFD801B41F2D6
:100F500089318842F0D3032034E0386810F00F0064
:100F600085420BD238680009000128433860386890
:100F700010F00F00A84201D0012023E020784007A4
:100F800006D535490A6832F4E052E06802430A6047
:100F90002078000707D53048016831F460412269A4
:100FA00051EAC201016000F00FF834492A4A126880
:100FB000C2F30312895CC8402B4908600F2000F07F
:100FC00061F80020BDE8F0812DE9F0410024002502
:100FD000002600272048006810F00C00002804D0EC
:100FE000042804D0082804D031E01E4830E024480A
:100FF0002EE0DFF86880D8F8000010F03F00040011
:10100000D8F8000040020CD5D8F80000C0F38810D2
:101010001B49A1FB00012200002300F059F8050044
:101020000BE0D8F80000C0F388100E49A1FB0001C6
:101030002200002300F04CF80500D8F80000C0F3AF
:101040000140401C40000600B5FBF6F000E00548FA
:10105000BDE8F08100380240083802400438024000
:10106000743802400024F40004000020403802409C
:101070000070004070380240003C0240E41E00084E
:1010800040787D0110B504004FF47A700D4909785D
:10109000B0FBF1F00C490968B1FBF0F000F0B0F9D9
:1010A000002801D001200CE0102C09D200222100E0
:1010B0005FF0FF3000F08FF904480460002000E08A
:1010C000012010BD080000200400002000000020C6
:1010D000BBBBE1B1B2F5803F80F07E80022A1ED911
:1010E0008C46B1FBF2F102FB11C31B0443EA10432F
:1010F000B3FBF2FC02FB1C3380B240EA0343B3FBB8
:10110000F2F002FB103240EA0C4000237047022A42
:1011100005D98446B0FBF2F002FB10C270474AB119
:1011200005D100F0010249085FEA30007047002253
:101130000023704700F078B90B0002000021002066
:101140007047904271EB030CF6D3B3F5803F2FD27A
:10115000F0B5B3FA83F7B1FA81F4A7F10F0E3D1B96
:101160005340CEF1200602FA0EF2F3415340B5F19E
:101170000F0746D80F3C2C444140C4F12006A04044
:10118000F1414140B1FBF3F603FB1611A2FB06450A
:10119000001BA94102D2761E8018594180EA010243
:1011A00021FA0EF362FA0EF200215A403046F0BDE9
:1011B00030B4B1FBF3FC03FB1C11A2FB0C45001B7C
:1011C000A94103D2ACF1010C8018594130BC024650
:1011D0000B46604600217047B2F1807F65D3F0B5C1
:1011E000B2FA82F7B1FA81F4C7F10F063D1B22FA79
:1011F00006F307F1110EF24120355A40B5F10F0701
:10120000B8D94140C4F12006A040F1414140B1FBB2
:10121000F3FC03FB1C11A2FB0C45001BA94103D2EC
:10122000BCF1010C801859410F2F12D30F3FC90395
:1012300041EA5041B1FBF3F603FB1611A2FB064550
:10124000D4EBC030A94102D2761E8018594146EA3B
:10125000CC3C07B34140C7F12006B840F1414140C2
:10126000B1FBF3F603FB1611A2FB0645001BA941D7
:1012700002D2761E8018594180EA010221FA0EF34B
:10128000C7F1200462FA0EF20CFA07F05A402CFA69
:1012900004F13043F0BD80EA010221FA0EF300218F
:1012A00062FA0EF260465A40F0BD8C46B1FBF2F194
:1012B00002FB11C31B0243EA1063B3FBF2FC02FB07
:1012C0001C331B024CEA002043EA1063B3FBF2FC20
:1012D00002FB1C331B024CEA002043EA1063B3FB01
:1012E000F2FC02FB1C331B024CEA002043EA1063B1
:1012F000B3FBF2FC02FB1C324CEA002000237047D7
:1013000010B410F00703DFF8044122684FF6FF0124
:101310000A40DFF8FC1051EA03210A43226010BCA6
:101320007047DFF8E8000068C0F30220704710B48F
:10133000020052B2002A05D40A01364B040064B2FE
:101340001A5508E00A01344B040064B214F00F048B
:10135000234403F8042C10BC704770B4030013F04E
:101360000704D4F10700052801D3042001E0D4F1DB
:101370000700251D072D01D2002500E0E51E0126EE
:1013800016FA00F0401E0140A94016FA05F56D1E40
:101390002A401143080070BC704710B50400601E5D
:1013A000B0F1807F01D301200EE0601E1B49086070
:1013B0000F215FF0FF30FFF7BAFF002018490860E7
:1013C000072018490860002010BD10B50400200057
:1013D000FFF796FF10BD2DE9F04104000D00160047
:1013E0000027FFF79EFF8046320029004046FFF7A6
:1013F000B4FF0100200040B2FFF799FFBDE8F08183
:1014000010B504002000FFF7C8FF10BD0CED00E090
:101410000000FA0500E400E018ED00E014E000E050
:1014200018E000E010E000E07047000010B5CC4C80
:10143000CC4820602000FEF731FF002801D00120B9
:1014400055E000F095F9C8480021C1610021016212
:1014500000214162002141610021C162002101633C
:10146000002141634FF40051C160C0480021016177
:101470000121C160102181605FF480014161012080
:1014800060600420A0601020E0608020B0FA80F04E
:10149000401E20614FF4A06060610020A061002028
:1014A000E061002020622000FEF78EFE002801D0BF
:1014B00001201CE0200000F01BF8002801D00120D2
:1014C00015E0200000F0ACF8002801D001200EE06B
:1014D000200000F04DF8002801D0012007E0200096
:1014E00000F028F8002801D0012000E0002010BD05
:1014F00070B504009C4D4FF48070A8616620286090
:101500000020686241F28836320029002000FEF790
:10151000E7FE002801D001200BE09920286032006E
:1015200029002000FEF7DCFE002801D0012000E0A9
:10153000002070BD1CB504008B494FF440708861D9
:10154000EB2008604FF44060C8615FF04070486273
:101550000A20486100200190002000906A46200087
:10156000FFF768F8002801D0012000E0002016BD38
:1015700030B58FB004004FF4807007908520019043
:1015800000200890002009905FF080700A900020F1
:10159000069001200B9000200C9000200D90002060
:1015A0000E9041F288352A0001A92000FEF798FE2E
:1015B000002801D0012031E02A0069462000FEF712
:1015C00058FF002801D0012028E0200000F09EF8FC
:1015D000002801D0012021E0812001909DF8001019
:1015E00011F00F010A225FF07060B0FA80F08240C3
:1015F00011438DF800102A0001A92000FEF770FEAB
:10160000002801D0012009E02A0069462000FEF7E9
:10161000BDFE002801D0012000E000200FB030BD49
:10162000F0B595B004004FF4807007900020099049
:101630000020069000200C9000200D9000200E90BD
:1016400010201190002013905FF48000149065200A
:101650000190002008905FF080750A9501200B90A2
:101660003F4E41F288373A0001A93000FEF738FEBC
:10167000002801D0012047E03A0069463000FEF71B
:10168000F8FE002801D001203EE006200190002055
:101690000A903A0001A93000FEF722FE002801D08E
:1016A000012031E002200F900220109001201290C2
:1016B000052001900A953B000FAA01A93000FEF712
:1016C00053FF002801D001201EE06120019001207D
:1016D0000B909DF8000010F03F0050F040008DF896
:1016E00000003A0001A93000FEF7FAFD002801D001
:1016F000012009E03A0069463000FEF747FE002865
:1017000001D0012000E0002015B0F0BD70B504004C
:10171000154D4FF44070A8610620286000206862D3
:1017200041F28836320029002000FEF7D9FD00285A
:1017300001D0012013E00D4A022010600220506009
:10174000052028605FF040706862330029002000A7
:10175000FEF70AFF002801D0012000E0002070BD44
:101760000C000020001000A0580000209000002075
:1017700010B586B03648016851F00201016000687A
:1017800010F00200059005983248016851F00201FE
:101790000160016831F0020101602F48016851F0D9
:1017A00002010160016811F00201059105990168CB
:1017B00051F008010160016811F0080105910599D7
:1017C000016851F010010160006810F010000590F0
:1017D0000598402000900A200490022001900120EA
:1017E0000290022003901D4C6946200000F03CF856
:1017F00004200090092004900020029069462000F7
:1018000000F032F84FF40060009009200490144C6E
:101810006946200000F028F84FF48050009009201D
:1018200004906946200000F01FF804200090092071
:10183000049069460B4800F017F84FF400500090F0
:10184000092004906946200000F00EF806B010BD93
:101850003838024018380240303802400004024054
:10186000000C0240001002402DE9F8410022002344
:10187000002400260025102D80F00B81012717FA87
:1018800005F213000A681A4014009C4240F0FF80E1
:101890004A68022A02D04A68122A1FD12A00D208B6
:1018A00000EB8202D2F820C05FF00F0E15F00702A5
:1018B000D2B292001EFA02FE3CEA0E0CD1F810E001
:1018C00015F00702D2B292001EFA02FE5EEA0C0C7C
:1018D00066462A00D20800EB82021662D0F800C0E9
:1018E0005FF0030E2A00D2B252001EFA02F23CEA66
:1018F000020C91F8048018F003082A00D2B25200BA
:1019000018FA02F858EA0C0CC0F800C04A68012A1C
:1019100008D04A68022A05D04A68112A02D04A68CB
:10192000122A1BD186682A00D2B252001EFA02F295
:101930009643D1F80C802A00D2B2520018FA02F86D
:1019400058EA060686604268AF40BA434F68C7F35C
:101950000017AF403A439446C0F804C0C6682A0056
:10196000D2B252001EFA02FE36EA0E068F682A0034
:10197000D2B2520097403E43C6604A68D20040F15E
:101980008680DFF81421176857F4804717601268C3
:1019900012F480420092009ADFF800C12A009208F7
:1019A0005CF822705FF00F0E15F00302D2B29200C5
:1019B0001EFA02FE37EA0E07DFF8E420904201D15A
:1019C000002631E0DFF8DC20904201D101262BE037
:1019D000DFF8D420904201D1022625E0DFF8CC20A8
:1019E000904201D103261FE0DFF8C420904201D1CC
:1019F000042619E02F4A904201D1052614E02E4A10
:101A0000904201D106260FE02C4A904201D10726D0
:101A10000AE02B4A904201D1082605E0294A90426B
:101A200001D1092600E00A26F6B215F00302D2B26F
:101A30009200964037432A0092084CF82270224EBA
:101A40003268A243D1F804C05FEACC3C00D52243FF
:101A500032601E4F3E68A643D1F804C05FEA8C3C5A
:101A600000D526433E601A4F3A68A243D1F804C01D
:101A70005FEACC2C00D522433A60164F3E68A6435D
:101A8000D1F804C05FEA8C2C00D526433E606D1C63
:101A9000F1E6BDE8F1810000443802400838014019
:101AA000000002400004024000080240000C024016
:101AB000001002400014024000180240001C0240C6
:101AC0000020024000240240003C0140043C014050
:101AD000083C01400C3C0140BFF34F8FBFF36F8FB8
:101AE000002049490860BFF34F8FBFF36F8F47480D
:101AF000016851F400310160BFF34F8FBFF36F8F66
:101B00007047BFF34F8FBFF36F8F4048016831F4C8
:101B10000031016000203C490860BFF34F8FBFF3E4
:101B20006F8F704710B4002039490860BFF34F8FA2
:101B300038480168C1F34E32C1F3C900030043F6CF
:101B4000E07010EA421050EA8370334C20601800B5
:101B5000431E0028F3D11000421E0028ECD1BFF331
:101B60004F8F2A48046854F480340460BFF34F8FC9
:101B7000BFF36F8F10BC704710B400202449086079
:101B8000BFF34F8F2148016831F480310160BFF30A
:101B90004F8F20480168C1F34E32C1F3C9000300E2
:101BA00043F6E07010EA421050EA83701B4C20604C
:101BB0001800431E0028F3D11000421E0028ECD16B
:101BC000BFF34F8FBFF36F8F10BC704780B500F02D
:101BD00072F800F07DF800F030F800F027F80028E7
:101BE00001D000F029F800F06CF800200C490860E2
:101BF0000C480D49096801605FF01041096881F3E4
:101C0000088800688047FEE750EF00E014ED00E030
:101C100084ED00E080ED00E060EF00E074EF00E0B4
:101C200010E000E0A80000200400009010B500249F
:101C3000FFF7FCFB204310BDFEE730B591B0002458
:101C4000012005905FF48030069002200B905FF435
:101C500080000C9019200D904FF4D8700E90022047
:101C60000F900820109005A8FEF720FF050028001F
:101C7000C0B2002800D0FEE700F03EF804002000CB
:101C8000C0B2002800D0FEE70F2000900220019093
:101C9000002002904FF4A05003904FF48050049025
:101CA00006216846FFF7E5F80100C9B2002900D017
:101CB000FEE711B030BD80B5FFF70EFFFFF732FF32
:101CC00001BD80B5FFF71DFFFFF756FF01BD000006
:101CD00080B50748016851F4807101600320FFF767
:101CE00074FB0F20FFF7CEF900F004F8002002BDCE
:101CF000003C0240704700007CB500241B4801688E
:101D000051F080510160006810F080500090009800
:101D1000154E306850F480303060FEF755FE0500F7
:101D2000104C2068C00308D4FEF74EFE401B40F262
:101D3000E9318842F4D3032013E0306850F40030D6
:101D40003060FEF741FE06002068800308D4FEF7ED
:101D50003BFE801B40F2E9318842F5D3032000E0CE
:101D6000002076BD04700040007000404038024002
:101D70000F48016851F4700101600E49086850F085
:101D80000100086000200C4A10600A680B480240FD
:101D90000A600B480B4A1060086830F48020086025
:101DA0000020094908605FF000600849086070473A
:101DB00088ED00E00038024008380240FFFFF6FEE0
:101DC00010300024043802400C38024008ED00E0D6
:101DD00030B450F8041B79B10268436802440830FB
:101DE000DC0744BFA9F10104E31852F8045B43F88F
:101DF000045B091FF9D1ECE730BC704710B5074907
:101E000079441831064C7C44163404E00A68081DF5
:101E1000114488470146A142F8D110BD2C000000B2
:101E20004C0000004EF68851CEF20001086840F4E4
:101E300070000860BFF34F8FBFF36F8F4FF00070DB
:101E4000E1EE100A704700008FEBFFFFA4000000D6
:101E50000C0000200000000079FFFFFF0C000000D4
:101E6000B0000000000000200000000000F00DF8AD
:101E7000002801D0FFF7C2FFAFF300800020AFF3CE
:101E80000080FFF7A3FE00F002F80120704700F089
:101E900001B800000746384600F002F8FBE70000F2
:101EA00080B5AFF30080024A11001820ABBEFBE7FB
:101EB0002600020003480168034A1278891801606D
:101EC000704700BFAC000020080000207047FEE70C
:101ED000FEE7FEE7FEE770477047704780B5FFF703
:101EE000E9FF01BD00000000000000000102030442
:101EF000060708090148804701480047711D00088E
:101F0000051F0008AFF30080FFF78CFFFFF7AEFF5F
:101F1000100000000024F40001000000FFF7FEBFE5
:101F2000FFF7FEBFFFF7FEBFFFF7FEBFFFF7FEBFE5
:101F3000FFF7FEBFFFF7FEBFFFF7FEBFFFF7FEBFD5
:101F4000FFF7FEBFFFF7FEBFFFF7FEBFFFF7FEBFC5
:101F5000FFF7FEBFFFF7FEBFFFF7FEBFFFF7FEBFB5
:101F6000FFF7FEBFFFF7FEBFFFF7FEBFFFF7FEBFA5
:101F7000FFF7FEBFFFF7FEBFFFF7FEBFFFF7FEBF95
:101F8000FFF7FEBFFFF7FEBFFFF7FEBFFFF7FEBF85
:101F9000FFF7FEBFFFF7FEBFFFF7FEBFFFF7FEBF75
:101FA000FFF7FEBFFFF7FEBFFFF7FEBFFFF7FEBF65
:101FB000FFF7FEBFFFF7FEBFFFF7FEBFFFF7FEBF55
:101FC000FFF7FEBFFFF7FEBFFFF7FEBFFFF7FEBF45
:101FD000FFF7FEBFFFF7FEBFFFF7FEBFFFF7FEBF35
:101FE000FFF7FEBFFFF7FEBFFFF7FEBFFFF7FEBF25
:101FF000FFF7FEBFFFF7FEBFFFF7FEBFFFF7FEBF15
:10200000FFF7FEBFFFF7FEBFFFF7FEBFFFF7FEBF04
:10201000FFF7FEBFFFF7FEBFFFF7FEBFFFF7FEBFF4
:10202000FFF7FEBFFFF7FEBFFFF7FEBFFFF7FEBFE4
:10203000FFF7FEBFFFF7FEBFFFF7FEBFFFF7FEBFD4
:10204000FFF7FEBFFFF7FEBFFFF7FEBFFFF7FEBFC4
:10205000FFF7FEBFFFF7FEBFFFF7FEBFFFF7FEBFB4
:10206000FFF7FEBFFFF7FEBFFFF7FEBFFFF7FEBFA4
:10207000FFF7FEBFFFF7FEBFFFF7FEBFFFF7FEBF94
:10208000FFF7FEBFFFF7FEBFFFF7FEBFFFF7FEBF84
:10209000FFF7FEBFFFF7FEBFFFF7FEBFFFF7FEBF74
:0420A000FFF7FEBF89
:0200000490006A
:100000000000052041060090D5200090D7200090E8
:10001000D9200090DB200090DD200090000000003F
:10002000000000000000000000000000C17400900B
:10003000DF2000900000000061750090C575009001
:100040009106009091060090910600909106009014
:100050009106009091060090910600909106009004
:1000600091060090910600909106009091060090F4
:1000700091060090910600909106009091060090E4
:1000800091060090910600909106009091060090D4
:1000900091060090910600909106009091060090C4
:1000A00091060090910600909106009091060090B4
:1000B00091060090910600909106009091060090A4
:1000C0009106009091060090910600909106009094
:1000D0009106009091060090910600909106009084
:1000E0009106009091060090910600909106009074
:1000F0009106009091060090910600909106009064
:100100009106009091060090910600909106009053
:100110009106009091060090E120009091060090D9
:100120009106009091060090910600909106009033
:100130009106009091060090910600909106009023
:100140009106009091060090910600909106009013
:100150009106009091060090910600909106009003
:1001600091060090910600909106009091060090F3
:1001700091060090910600909106009091060090E3
:1001800091060090910600909106009091060090D3
:1001900091060090910600909106009091060090C3
:1001A000ED20009091060090F920009091060090BB
:1001B00091060090910600909106009091060090A3
:0801C0009106009091060090E9
:1001D00010B5054C237833B9044B13B10448AFF381
:1001E00000800123237010BD4003002000000000A8
:1001F0001853029008B5034B1BB103490348AFF3F2
:10020000008008BD00000000440300201853029045
:1002100001F0FF01102A2BDB10F0070F08D010F8B7
:10022000013B013A8B422DD010F0070F42B3F6D1BB
:10023000F0B441EA012141EA014122F007047FF0D4
:1002400000070023F0E80256083C85EA010586EA2B
:10025000010685FA47F5A3FA87F586FA47F6A5FA67
:1002600087F68EB9EED1F0BC01F0FF0102F0070273
:1002700032B110F8013B013A83EA010313B1F8D11E
:100280000020704701387047002D06BF35460338FF
:10029000073815F0010F07D1013015F4807F02BF38
:1002A000013015F4C03F0130F0BC0138704700BF89
:1002B0007BB972B90029BEBF00204FF0004106E0B3
:1002C00008BF00281CBF6FF000414FF0FF3000F066
:1002D000B5B9ADF1080C6DE904CE002909DB002B9E
:1002E0001ADB00F04DF8DDF804E0DDE9022304B08C
:1002F0007047404261EB4101002B1BDB00F040F8EE
:10030000DDF804E0DDE9022304B0404261EB410185
:10031000524263EB43037047524263EB430300F0E6
:100320002FF8DDF804E0DDE9022304B0404261EB80
:1003300041017047524263EB430300F021F8DDF8BE
:1003400004E0DDE9022304B0524263EB430370474B
:1003500053B94AB9002908BF00281CBF4FF0FF312C
:100360004FF0FF3000F06AB9ADF1080C6DE904CE32
:1003700000F006F8DDF804E0DDE9022304B0704780
:100380002DE9F047089D0C46002B4ED194468C4534
:100390008646B2FA82F262D94AB1C2F12003914094
:1003A00020FA03F30CFA02FC194300FA02FE4FEAAA
:1003B0001C471FFA8CF6B1FBF7F44FEA1E4307FB0C
:1003C000141143EA014304FB06F199420AD91CEBDC
:1003D000030304F1FF3080F01281994240F20F8153
:1003E000023C6344591A1FFA8EF3B1FBF7F007FB86
:1003F000101143EA014300FB06F69E420AD91CEBAA
:10040000030300F1FF3180F0FC809E4240F2F9804E
:10041000634402389B1B40EA044000211DB1D340D5
:100420000022C5E90032BDE8F0878B4205D90DB145
:10043000C5E9000100210846F5E7B3FA83F1002978
:1004400046D1A34202D39042C0F0F080861A64EBFA
:1004500003030120002DE6D0C5E90063E3E7002A8D
:1004600040F09080A1EB0C044FEA1C481FFA8CF777
:100470000121B4FBF8F64FEA1E4308FB164443EA99
:10048000044307FB06F0984208D91CEB030306F16E
:10049000FF3402D2984200F2CD8026461C1A1FFA81
:1004A0008EF3B4FBF8F008FB104443EA044300FB6E
:1004B00007F79F4208D91CEB030300F1FF3402D277
:1004C0009F4200F2B0802046DB1B40EA0640A5E7D1
:1004D000C1F120068B4022FA06F71F4320FA06FCE2
:1004E00004FA01F343EA0C03F44000FA01F8380C73
:1004F0004FEA1349B4FBF0FE1FFA87FC00FB1E44D1
:1005000049EA04440EFB0CF9A14502FA01F20AD9AA
:100510003C190EF1FF3A80F08480A14540F28180C1
:10052000AEF1020E3C44A4EB09041FFA83F9B4FBBC
:10053000F0F300FB134449EA044403FB0CFCA4451C
:1005400007D93C1903F1FF3067D2A44565D9023BB6
:100550003C4443EA0E40A0FB0293A4EB0C049C42F3
:10056000CE469C4651D34ED055B1B8EB0E0364EB4A
:100570000C0404FA06F6CB401E43CC40C5E90064E7
:10058000002150E7C2F1200320FA03F10CFA02FC2B
:1005900024FA03F394400C434FEA1C4800FA02FE8D
:1005A0001FFA8CF7B3FBF8F008FB1031230C43EA79
:1005B000014300FB07F1994208D91CEB030300F14A
:1005C000FF362CD299422AD9023863445B1AA4B26E
:1005D000B3FBF8F108FB113344EA034401FB07F3D2
:1005E000A34208D91CEB040401F1FF3613D2A34245
:1005F00011D902396444E41A41EA004139E704465A
:10060000F0E6084606E7C845AED2B9EB020E63EB4A
:10061000070C0138A8E73146EDE7034699E7304675
:10062000D4E7D6467FE7634402384DE706462346C3
:1006300008460FE7023E634430E700BF704700BF43
:10064000DFF834D0002103E00C4B5B5843500431F9
:100650000B480C4B42189A42F6D30B4A02E0002397
:1006600042F8043B094B9A42F9D303F047FF24F0C8
:10067000E3F801F0A3F8704700000520547C0290D5
:1006800000000020280100204003002044560120E3
:10069000FEE7704708B500F0EFFDBDE8084000F048
:1006A00071BD00F0EBBD40687047416070470000CD
:1006B0004FF0E022D2F8FC3D43F08073C2F8FC3DDD
:1006C000054B064AD3F8B01F0A43C3F8B02F1A6887
:1006D00042F001021A607047001000E055CEACC530
:1006E000521A02EB5302B2FBF3F07047014B586809
:1006F000704700BF001000E0704710B504460C21A1
:1007000022F0A4FE204610BD036810B51B69044604
:1007100031B19847A26863689B1A0344636010BDB7
:100720009847A060FBE7704730B58DB00D46144682
:1007300000212C2201A823F0D6FF01A803F022FEFD
:100740009DF8040030B1BDF8063001202B60BDF8E3
:10075000103023600DB030BD10B50446042122F0E6
:1007600075FE204610BD000008B54FF488714FF4A7
:10077000F07003F0B3FD28B1034B2021034A044875
:1007800023F0AAFD08BD00BF98530290B953029010
:10079000E3530290032823D8DFE800F0020B131A7A
:1007A000104B102110481A68B2FA82F2520904F074
:1007B0005BBB0C4B40215A68B2FA82F252090B48DB
:1007C000F5E7084B80219A68B2FA82F25209F6E7FF
:1007D000044B40210648DA68B2FA82F25209E6E791
:1007E000704700BF5C030020000402400008024084
:1007F00000180240032823D8DFE800F0020B131A88
:10080000104B102110481A68003A18BF012204F05A
:100810002BBB0C4B40215A68003A18BF01220B48F1
:10082000F5E7084B80219A68003A18BF0122F6E7E5
:10083000044B40210648DA68003A18BF0122E6E777
:10084000704700BF5C030020000402400008024023
:100850000018024003280FD8DFE800F00206090B59
:100860001021064804F005BB40210548FAE7802125
:10087000FBE740210348F5E7704700BF0004024052
:10088000000802400018024008B5032813D8DFE82A
:1008900000F0020A0D0F1021084804F0DFFA431E91
:1008A0005842584108BD40210548F6E78021FBE742
:1008B00040210448F1E70020F1E700BF00040240B6
:1008C000000802400018024070B5084D00240126BF
:1008D000E0B2FFF7D9FF18B12B68012B18BF2E60CB
:1008E00001340435052CF3D170BD00BF5C0300203A
:1008F000012380F8781080F8793070470020704725
:1009000041640039024B18BF01211970704700BFC4
:100910000349012000207047836B0BB1084618473C
:1009200070474FF6FF707047406803689B6918472F
:100930007047000038B5044600F0D6FD084923682A
:100940002046084DD3F88C3098470023284684F879
:100950004A30FFF7ADFE0123256184F8703038BDC1
:1009600000F807C06C03002008B503680446D3F8FC
:1009700080309847236820469B6F984700F034F9F1
:10098000236820461B6F98474FF48051064804F0B7
:1009900070FA0821054804F06CFA00F025F9236884
:1009A00020461B6F9847F8E70020024000280240CD
:1009B00010B5044609F0D4FB23682046D3F8AC30C8
:1009C000BDE81040184700F049BD00F04DBD0000E3
:1009D00070B500F0A7FD10490023C1F88430BFF3C3
:1009E0004F8FD1F8803043F6E074C3F3C900C3F3EE
:1009F0004E335B0103EA0406024646EA8275013A79
:100A0000C1F87452F9D2203B13F1200FF2D1BFF399
:100A10004F8FBFF36F8F70BD00ED00E000F0FABCA8
:100A200000F094BD00F09CBD00F0FEBC08F004BED8
:100A300010B504467C2122F009FD204610BD0000BF
:100A400090F834100D4B10B590F878401A788C421D
:100A500009D03AB90A490B4A088814881080012243
:100A60000C801A7010BD002AFCD0064A0449148874
:100A700008880C8010800022F3E700BFFC480120AA
:100A8000FA480120F848012070B50D46194635B9DD
:100A9000094B40F2D221094A094823F01DFCC0E964
:100AA0000F52003A074B18BF01221A700368BDE8C5
:100AB0007040D3F88C30184748540290805402900C
:100AC000CE5402900249012008B5094B1B888B4285
:100AD00003D8084B1B88934205D9074B9E21074A30
:100AE000074823F0F9FB074B1980074B1A8008BD14
:100AF000F8480120FA4801201355029076550290DB
:100B0000CE540290FE48012000490120034690F88F
:100B10007A0018B1586803681B68184770470000CE
:100B2000014608B5034B186801B1012109F032FBF9
:100B3000012008BD04490120034B00225A609A603D
:100B4000024A1A60704700BF6C030020785302907D
:100B50000121002208B5084606F07AF90A4B186010
:100B600028B90A4B28210A4A0A4823F0B5FB00227B
:100B70000421012006F036FA074B186018B9074B1C
:100B80002C21034AF0E708BD7C0300209456029014
:100B9000DD5602900C5702907803002056570290C1
:100BA000024B4FF0FF31186806F0AAB97C03002011
:100BB000014B186806F0E0B97C030020024B0021CD
:100BC000186806F09DB900BF7C030020FFF7F0BF56
:100BD0000023034803491A46006806F049BA00BFDB
:100BE000780300200400002013B50023074C01A95E
:100BF0001A46206806F07EFA4FF0FF33002201A962
:100C0000206806F077FA02B010BD00BF780300201C
:100C100003685B6C18470120704703689B6A18479C
:100C2000FEE700000E4B82B01A6B42F400021A631A
:100C30001A6B02F400020192019A1A6942F400024E
:100C40001A611A6922F400021A61064B064A1A61F7
:100C5000064A5A614FF08062054B9A6002B07047B5
:100C600000380240C4380020FD0E0090210C009096
:100C700000E100E040F2EF3070470000054B4FF01C
:100C800080620360044BC3F88820BFF34F8FBFF32B
:100C90006F8F7047F058029000E100E010B50446F5
:100CA0004FF45A61FFF7EAFF204622F0CFFB2046BF
:100CB00010BD000008B50A2809D8DFE800F00610CA
:100CC0000E080808081010101000022008BD054B7F
:100CD0009021054A054823F0FFFA0020F6E701209D
:100CE000F4E700BF98570290B3570290FE57029066
:100CF00038B50C46887FFFF7DDFF174BA58AE28ADF
:100D0000586342EA054221695A64628BD963521BD7
:100D10001A642568082D0ED19A611A6158620F4A2B
:100D2000207F42EA0062DA61E2681A620C4A596185
:100D3000D9601A6038BD0022D8611A61E1680A0AD8
:100D40004809C1F3C40102F4784200F4FC60024394
:100D50000A439A63034AECE700B00240090001002D
:100D6000012302000123030008B50B280BD8DFE89C
:100D700000F00612100A0A0A0A08080808080220E9
:100D800008BD0520FCE7054B6F21054A054823F007
:100D9000A3FA0020F4E70120F2E700BF9857029081
:100DA00046580290FE5702902DE9F04191F81D80BF
:100DB0000C464046FFF7D8FFA77F05463846FFF7A9
:100DC000D3FF06463846FFF775FFA18A628B434B77
:100DD000521A1A649A61228B521A1A61E28A586373
:100DE00042EA014221695A646268D963DA60206884
:100DF000802828D0227F0FD8202866D0402864D0B1
:100E000004281AD045EA0265344BB84545F400354C
:100E1000DD6160D0324A44E0B0F5807F04D0B0F5A7
:100E2000007FEFD12F4800E02F4840EA0262DA61EC
:100E3000E2681A625E62596132E045EA026242F497
:100E40000032DA61F6E7A068021DDA62227F45EA25
:100E5000026545F40035DD615E625961017841B19A
:100E6000012921D0214B4FF48D71214A214823F0D3
:100E700033FADA69418822F47F42013922F0100204
:100E800042EA01220121DA61144BDA6942F02002C0
:100E9000DA61DA699206FCD410229A600029B9D08E
:100EA000154A1A60BDE8F081B2F1FF01DA694088A5
:100EB00022F47F4218BF0121013822F0100242EAD9
:100EC000002242F01002DA61DEE745EA0262034BDB
:100ED00042F40032B5E742F20132E2E700B00240EC
:100EE00001230100090002000A000200905802904C
:100EF000AA580290FE57029001230200024B1B6881
:100F0000586803685B6918470449012070B50446B6
:100F10000A4B0C30002625466022606026726672FD
:100F200045F8203B294609F08BFA04F55A63EE6038
:100F300024359D42FBD1204670BD00BFF058029081
:100F4000034B1A68D207FCD423229A60704700BF73
:100F500000B00240094B5A69D2030AD5BFF34F8F44
:100F600008440029A0EB010204DCBFF34F8FBFF35C
:100F70006F8F70472039C3F86822F2E700ED00E078
:100F800030B5104C2568ED07FCD423250904FF2B50
:100F9000A56041F001014FF0020565636164E06303
:100FA0000AD00949656241EA0363E361074B2262A3
:100FB0006061E060236030BDE561039BA363044B87
:100FC000F8E700BF00B00240090001000100020084
:100FD0000100030030B50F4C2568ED07FCD4232534
:100FE0001204FF2BA56042F001024FF00205656379
:100FF0006264E063E16008D01B0643F00213E36122
:10100000054B65626061236030BD044BE3610123E1
:10101000F9E700BF00B0024001000200020002FF39
:1010200030B50B4C2568ED07FCD4232512041B06B4
:10103000A56042F00102022543F400336563626457
:10104000E063E160E361034B65626061236030BD92
:1010500000B0024001000200012070470C207047E0
:101060000C2303FB0100083070470C2303FB010035
:10107000083070470120704742F29C20704742F2CE
:101080009C2303FB01000830704742F29C2303FBC2
:10109000010008307047012070471020704700EBB6
:1010A00001100830704700EB011008307047084607
:1010B00001F01ABA034B10B50446036008F015F8A6
:1010C000204610BDA859029010B50446FFF7F2FF64
:1010D0001421204622F0BAF9204610BD034B10B56A
:1010E0000446036008F001F8204610BD74590290D0
:1010F00010B50446FFF7F2FF42F2A421204622F089
:10110000A5F9204610BD0000034B10B5044603604E
:1011100007F0EBFF204610BD4059029010B5044681
:10112000FFF7F2FF1821204622F090F9204610BD6B
:10113000094B10B50446036000F50B501030FFF763
:10114000B9FF04F12C00FFF7C9FF04F11400FFF709
:10115000DBFF204610BD00BFDC59029008B50248F5
:10116000FFF7E6FF08BD00BF5012002010B504468F
:10117000FFF7DEFF42F24441204622F067F92046A5
:1011800010BD00002DE9F34101F024F800240546CC
:1011900001F024F82346014622462846009413F025
:1011A000E9F8274B274A2046274D1A6002F074FBC6
:1011B000264B274A27489A6013F044F82B68BFF360
:1011C0005B8FDB0736D4284622F042F990B3224CDD
:1011D000224F234B04F1140007F1180604F12C08E8
:1011E00023606060C4F80880E760266107F07EFF36
:1011F0001C4B4046636107F079FF1B4B3846E362A6
:1012000007F074FF04F50053184A03F53970C3F86A
:10121000D02202F0C7FC224607F11401304602F04A
:10122000B3FB304601F060F9114823F073F828460B
:1012300022F01AF90F4802B0BDE8F041FFF77ABB7F
:1012400068490120FC0300204C1200201C040020EF
:10125000000400200800002050120020203500204B
:10126000DC5902904059029074590290A85902909A
:101270005D11009080030020704700000148FFF7D7
:1012800073BB00BF8003002070B5244E244B254C57
:101290003046254D2360FFF739FE284618F07CF9CB
:1012A000224810F02BFD224B00224FF48071214880
:1012B0001A8683F858205A6683F870205A67DC60D3
:1012C000C3E912121C49C3E91A121C4999671C4947
:1012D0000B604FF4F07101801A4801804FF488715F
:1012E0001948C3E90422C3E90622C3E90822C3E975
:1012F0000A22C3E90E22C3E91022C3E91422C3E97A
:101300001722C3E901650180104883F83420018069
:101310000F490A700F4A1A6070BD00BFA804002070
:1013200038540290481200201C04002000040020C1
:1013300080030020F84801200100000100000101A5
:1013400004490120FE480120FA48012000490120FB
:10135000FC480120C45502900148FFF78FBC00BF34
:10136000A80400200020704781807047C18070472A
:1013700001817047418170477047704770477047DF
:10138000704710B4C4880368121B84885B6D091B06
:1013900012B25DF8044B09B218474FF6FF73838110
:1013A0004FF0FF3303621368C36110607047002081
:1013B00070478B88838001207047704780F8261023
:1013C000704790F826007047002210B5B1F9084028
:1013D000B1F90A10028042808480C18010BD0022D1
:1013E000028042808280C28070470177704780ED22
:1013F000080A704780F82410704780F8251070475D
:1014000001207047983070478C30704784307047A7
:1014100070470000034B902283F85A2383F8582327
:10142000704700BF00E100E0094A0A49D3680A4852
:10143000C3F30A03013B9BB20B801169C1F30A019C
:10144000013901801364536B43F001035363704708
:10145000006801409636002094360020014BD3F8F6
:10146000AC00704700680140024B0122C3F8AC1089
:101470005A62704700680140124A5369DB0370B535
:101480001ED50023C2F88430BFF34F8FD2F88030CE
:1014900043F6E074C3F3C900C3F34E335B0103EAC0
:1014A0000406014646EA81750139C2F87452F9D240
:1014B000203B13F1200FF2D1BFF34F8FBFF36F8F9B
:1014C00070BD00BF00ED00E07047704710B50446E6
:1014D0002C2121F0BBFF204610BD10B50446BC21D5
:1014E00021F0B4FF204610BD70B5044608F0F9F8AD
:1014F00023685D6E0FF0D4FA01462046A8472368A2
:10150000054A2046D3F888500023A2F57F31AC4627
:10151000BDE87040604700BF00FC03C008F0C8B8D9
:1015200008F0D2B808F08EB808F0EFB990F825208E
:1015300012B103685B691847704790F825201AB10B
:1015400090F8242002B1186070470000034B4FF060
:1015500080629A604FF080729A60704700E100E00C
:10156000084B4FF08062C3F88820BFF34F8FBFF362
:101570006F8F4FF08072C3F88820BFF34F8FBFF397
:101580006F8F704700E100E0002370B5124E0546F2
:101590008380124B0360336893F858200AB1D86CEB
:1015A00000B998680368DB6A98473368B0FA80F43A
:1015B000D86C640930B10368DB6A9847002808BF1B
:1015C00044F001042CB9064B2C21064A064822F0AF
:1015D00083FE284670BD00BF04490120EC5A0290EA
:1015E000E8590290465A02907F5A029070B5244EF4
:1015F0003568BFF35B8F15F001053FD1304621F010
:1016000027FF00283AD01F4C1F4B04F134002561FE
:10161000E584A562A585C4E90035C4E9025510F04A
:10162000CCFD04F158000AF009FB184B2046A365D5
:10163000174B40F8843BFFF7A7FF164B1648C4F83A
:1016400084302433C4F89050C4F88C306423C4F838
:101650009C50C4F8A850C4E928350023C4F8AC3025
:10166000C4F8B030C4F8B430C4F8B8300B4BC4F888
:10167000983022F04FFE304621F0F6FE014870BD52
:10168000983600209C3600201C6B02900C5B029068
:10169000845B0290D06A029011140090B06A0290AC
:1016A00010B5144C236823B3134B144A1B6C1188D8
:1016B0008B4213D1124B198804F0C2F8226892F8B9
:1016C0006A30013382F86A30FFF782FA206808F046
:1016D00047FD0020BDE81040FFF75CB804F0B0F80B
:1016E000206803681B6A98470020BDE81040FFF798
:1016F00081B810BD044901200068014096360020E1
:10170000943600200149002007F062B8210B0090B8
:1017100008B5642005F084FBFBE7000010B594B029
:101720001022002102240AA822F0DDFF1422002149
:1017300003A822F0D8FF1F4B012119201A6C42F098
:1017400080521A641B6C03F080530193019B1A4B67
:101750001A6842F440421A601B6803F44043029343
:10176000029B4FF48033CDE908134FF48003CDE999
:101770000E434FF4D873CDE9100308A8CDE9124405
:1017800004F0B2F800B1FEE704F076F800B1FEE72D
:101790000F234FF4A0520590072103A8CDE903348D
:1017A0004FF48053CDE9062304F086FA00B1FEE73A
:1017B00014B010BD003802400070004080B598B0F1
:1017C000102200214FF000580BA8012422F08BFFBB
:1017D0001C2602F05DFFBF4B0BA8ADF82C40032583
:1017E00040F20117CDE90C83BB4B0E9302F06EFF64
:1017F0004FF040438DF82D4000240BA80C938DF83A
:1018000034608DF83740ADF83A4002F05FFF0223B4
:101810000BA88DF837508DF82D301623ADF83A709F
:101820008DF8343002F052FF4FF010430BA88DF8C2
:10183000346004260C938DF82D508DF83740ADF8A8
:101840003A4002F043FF17230BA88DF82D608DF866
:1018500034308DF83750ADF83A7002F037FF052379
:101860000BA88DF838408DF82D3013238DF83430C7
:1018700002F02CFF304602F019FFBFF34F8FBFF389
:101880006F8F964AC2F85042BFF34F8FBFF36F8FEE
:10189000536943F400335361BFF34F8FBFF36F8F2E
:1018A000C2F88440BFF34F8FD2F8803043F6E07423
:1018B000C3F3C900C3F34E335B0103EA04060146D8
:1018C00046EA81750139C2F86052F9D2203B13F122
:1018D000200FF2D1BFF34F8F536943F4803353612C
:1018E000BFF34F8FBFF36F8F02F038FE0024FFF776
:1018F00015FF142200210BA822F0F5FE784B1021D1
:1019000078481A6B01274FF00308102542F01002A7
:1019100040261A631A6B02F010020092009A1A6BAA
:1019200042F002021A631A6B02F002020192019A5B
:101930001A6B42F040021A631A6B02F040020292E4
:10194000029A1A6B42F400721A631A6B02F4007264
:101950000392039A1A6B42F008021A631A6B02F0A0
:1019600008020492049A1A6B42F480621A631A6B9A
:1019700002F480620592059A1A6B42F020021A6303
:101980001A6B02F020020692069A1A6B42F48072D9
:101990001A631A6B02F480720792079A1A6B42F06C
:1019A00001021A631A6B02F001020892089A1A6B7C
:1019B00042F080021A631A6B02F080020992099ABF
:1019C0001A6B42F004021A6300221B6B03F004033B
:1019D0000A930A9B03F048FA00220821424803F0C8
:1019E00043FA00224FF48051404803F03DFA0022B0
:1019F000C0213F4803F038FA002240213D4803F05F
:101A000033FA0BA93748CDE90B57CDE90D4803F060
:101A1000A7F808230BA93448CDE90B37CDE90D44CD
:101A200003F09EF84FF480530BA93048CDE90B37F3
:101A3000CDE90D4403F094F8C0230BA92C48CDE95F
:101A40000B37CDE90D4803F08BF82A480BA9CDE9F7
:101A50000B67CDE90D4803F083F82748274B8480B6
:101A600003600762C0E9054402F05CFE00B1FEE7D6
:101A7000234C244BC4E90200C4E90030C4E90A0045
:101A8000C4E90C00204602F06DFF00B1FEE73946C4
:101A9000204603F01FF8034600B1FEE71A480BA9E1
:101AA0001A4A8360466183621195C0E900230422CB
:101AB000C0E903258022C0E90833C0E90623CDE947
:101AC0000B55CDE90D55CDE90F5504F05BFCF8B190
:101AD000FEE700BF120000030100010100ED00E07D
:101AE000003802400004024000280240002002406A
:101AF0000008024000180240043900200030024073
:101B0000C438002000B0024060370020400100A02F
:101B100002F0CAFB02F07CFB054600B1FEE734226E
:101B200001460BA8374C22F0DEFD374B282635271F
:101B300040F2152C40F2352E20462561A58684F80A
:101B40003650C4E900350923C4E905630B23C4E911
:101B5000077340F21B13C4E909C340F21D13C4E923
:101B60000255C4E90BE303F073FD024600B1FEE742
:101B70004FF4F0714FF488730B904FF48065169317
:101B8000ADF85C208DF85E20CDE90C100220CDE987
:101B90000E30FF20CDE910020520CDE91421CDE95A
:101BA00012500BA9204603F01EFE034600B1FEE7CB
:101BB00016484FF4E132164903614362C0E900124E
:101BC0000C22C0E90233C0E90523C0E9073304F061
:101BD000D1FF00B1FEE7FEF75DFDFEF75AFD05F00F
:101BE00091F80C4A00210C4805F0C6F80B4B0C4A42
:101BF000002118600B4805F0BFF80B4B186005F08A
:101C00009BF8FEE71C380020006801409437002054
:101C100000100140085C0290111700905C37002012
:101C2000E45B0290A3060090583700200268034B43
:101C30009A4201D102F0A4BC704700BF00100040DE
:101C4000FEE700000D4B82B00F216FF001001A6C0F
:101C500042F080521A641A6C02F080520092009A8C
:101C60005A6C42F480425A6400225B6C03F4804355
:101C70000193019B02B002F0B9BC00BF00380240E2
:101C8000026882B0084B9A420BD1D3F8302803F592
:101C9000006342F480521A631B6B03F48053019378
:101CA000019B02B0704700BF003002400E4B07B5E9
:101CB00002689A4215D1A3F5F04305215A201A6B08
:101CC00042F400021A6300221B6B03F40003019329
:101CD000019B02F08BFC5A2003B05DF804EB02F08C
:101CE000B7BC03B05DF804FB00B0024070B5ACB007
:101CF00004461422002106A822F0F5FC84220021CB
:101D00000BA822F0F0FC2268464B9A4240F08880F3
:101D1000082305200B93642310930223CDE911308F
:101D200001230BA8159304F0A3F808B1FFF788FF6F
:101D30003D4B022400250E265A6C06A93B4842F072
:101D400080625A645A6C02F080620092009A1A6BA8
:101D500042F010021A631A6B02F010020192019A0B
:101D60001A6B42F400721A631A6B02F40072029248
:101D7000029A1A6B42F480621A631A6B02F4806250
:101D80000392039A1A6B42F040021A631A6B02F034
:101D900040020492049A1A6B42F480721A631B6B1D
:101DA00003F480730593059B1023CDE90634CDE938
:101DB00008540A9602F0D4FE4EF6FF7306A91C489A
:101DC0000A96CDE90634CDE9085402F0C9FEF7239E
:101DD00006A918480A96CDE90634CDE9085402F060
:101DE000BFFE4FF4805306A91348CDE906340923FA
:101DF000CDE908540A9302F0B3FE4FF4464306A916
:101E00000E480A96CDE90634CDE9085402F0A8FE42
:101E100058202A46052102F0E9FB582002F018FC60
:101E20002CB070BD00680140003802400010024034
:101E30000024024000280240001802400020024016
:101E4000F0B5ABB004461422002104A822F04BFCEC
:101E50008422002109A822F046FC2268204B9A42E5
:101E60003CD1402309A8099304F002F808B1FFF718
:101E7000E7FE1C4B0227002603255A6C072404A901
:101E8000194842F010025A645A6C02F01002019292
:101E9000019A1A6B42F002021A631A6B02F00202F4
:101EA0000292029A1A6B42F001021A631B6B0894A9
:101EB00003F001030393039B8023CDE90665CDE97D
:101EC000043702F04DFE4FF4007304A9074808944C
:101ED000CDE90437CDE9066502F042FE2BB0F0BD36
:101EE000001001400038024000040240000002409F
:101EF000F0B5002387B003932A4B1E68002E4ED105
:101F00000122022703250C241A6001A9264B274829
:101F10009A6B42F001029A639B6B03F001030093FA
:101F2000009B4FF68373CDE90454CDE9013702F0ED
:101F300017FE48F2331301A91D480594CDE9013776
:101F4000CDE9036502F00CFE4CF2037301A91948B8
:101F50000594CDE90137CDE9036502F001FE4FF6A6
:101F60003F0301A914480594CDE90137CDE9036584
:101F700002F0F6FD242301A910480594CDE90137AC
:101F8000CDE9036502F0ECFD04230D480DEB0301E0
:101F90000594CDE90137CDE9036502F0E1FD07B015
:101FA000F0BD00BF2C390020003802400010024074
:101FB00000180240000C024000140240001C0240C5
:101FC0000008024008B5144B1A6822BB01224FF6E4
:101FD000837112481A60124A936B23F001039363D2
:101FE00002F0A2FE48F233110E4802F09DFE4CF2C0
:101FF00003710D4802F098FE4FF63F010B4802F0C6
:1020000093FE24210A4802F08FFE04210948BDE80E
:10201000084002F089BE08BD2839002000100240A7
:102020000038024000180240000C02400014024038
:10203000001C024000080240214B1A6C42F01002C2
:1020400070B51A6488B01B6C054601A903A803F09B
:1020500010030293029B03F0EDFE069B4BBB03F0C3
:10206000C9FE184E184B336040F2E733F360174B4C
:10207000B0FBF3F3013B3046736000233361B36080
:10208000B36104F033FB044680B9304604F0E0F954
:10209000044658B9362002F0DBFA0F2D0DD822463F
:1020A0002946362002F0A2FA094B1D60204608B0EE
:1020B00070BD03F09FFE4000D3E70124F6E700BFA8
:1020C00000380240303900200010004040420F002C
:1020D000400000207047FEE7FEE7FEE7FEE770479E
:1020E000014804F0F7B900BF30390020014803F07F
:1020F0001DBB00BF1C380020014802F061BC00BFBE
:10210000C43800200120704708B522F08FFB162349
:1021100003604FF0FF3008BD08B522F087FB16239F
:102120000360FEE770B50D4614460E46731B9C42D5
:1021300001DC204670BDAFF3008006F8010BF5E727
:1021400070B50D4614460E46731B9C4201DC2046BA
:1021500070BD16F8010BAFF30080F5E74FF0FF30CC
:1021600070474FF4005300204B60704701207047C8
:10217000002070470A4A116808B5034609B90949A1
:1021800011601068694603448B4206D922F04EFB69
:102190000C2303604FF0FF3008BD1360FCE700BF65
:1021A0007C39002048560120704710B504460421B0
:1021B00021F04CF9204610BD08B519B1012905D010
:1021C000002008BD01F0B4FB0068FAE701F0B0FBA5
:1021D0004068F6E700487047405C0290082070476E
:1021E00013B5002451B1036801AA01948DF803408E
:1021F0009C680DF10303A04702B010BD0846FBE741
:10220000C0897047008A7047C088704780887047CF
:10221000807A00F07F007047807AC0097047002004
:10222000704700009FED010A704700BF00000000EA
:10223000704710B50446082121F008F9204610BD6A
:102240007047704700F598730868496803C3704782
:10225000704770474160704770470000064BC0F8F8
:102260004801C0F84C310023C0F8503100F5A2738A
:10227000C0F84031704700BF1D2300900123037256
:1022800070477047704710B441680346C2689B6846
:10229000541001EB6200D20748BF0A595DF8044BA5
:1022A00048BFD35818470346406830B19A681AB9F6
:1022B000D86800F0010070470120704710B504464F
:1022C0000C2121F0C3F8204610BD10B504461021A2
:1022D00021F0BCF8204610BD10B504464FF4AE7195
:1022E00021F0B4F8204610BD10B50EF0D9FB0368FC
:1022F000BDE81040DB6B184710B50446D0F840012C
:1023000058B10368DB68984738B1D4F840010368D6
:102310009B6898470023C4F8403110BD2DE9F14F68
:10232000D0E9556A0746B06803681B6A984742F2CD
:102330009B23984205D8444BA321444A444821F0AA
:10234000CBFF706803681B6A98470F2803D8414B7E
:10235000A4213E4AF2E7F06803681B6A98470B28FD
:1023600003D83D4BA521394AE8E7DFF8F4900EF099
:1023700097FB04300EF0B9FBD9F8000010B10368E8
:10238000DB689847D9F8000010B103681B689847CC
:10239000DFF8D080D8F8000010B103685B69984777
:1023A000D7F83C0110B103685B689847D8F8000083
:1023B00010B103681B689847D7F83C0110B1036857
:1023C0009B689847F06800214FF0000B03685B6A38
:1023D0009847224B0446C0F804B080F808B059462C
:1023E0000360B06803685B6A9847054601F064FBC8
:1023F0007068594603685B6A98470646294601F0AB
:10240000DBFA331DC7F83C612846C9F80040C8F81C
:102410000050CAF800302B68C6F808A0DB68EE63ED
:102420009847336830461B6898472146284610F085
:10243000F5FB236820461B699847236820465B69A3
:1024400001B0BDE8F04F1847F05C02907E5D02904D
:102450004A5E0290915E0290345F02904C6002905E
:102460004C49012048490120044B1B6893F858202F
:102470000AB1D86C00B99868704700BF04490120C0
:10248000F8B5174604460E460EF0D0FB124B002559
:102490001C602946114B2360114BC4E95135114B87
:1024A0001868C4E953550368C4E94F559B68C4E9EB
:1024B00055769847284601F0EFF9FFF7D5FF18F059
:1024C000BEFEFFF7D1FF18F035FFFFF7CDFF18F084
:1024D0003DFF2046F8BD00BF58490120F85F02903B
:1024E000E05F029004490120064BC0F84801C0F8A3
:1024F0004C310023C0F8503100F5A273C0F84031D0
:10250000704700BF1D230090406A7047806A704783
:1025100070478B88C069DB0A0A6850F823001044B2
:10252000704710B50446BAB1107B68B1537BD27ABC
:102530001B0203F4E0631A43236A03EB82031A8845
:102540008A4202D193F9020010BD05D80138043344
:1025500080B20028F3D1F7E70020F5E710B5044674
:102560002C2120F073FF204610BD000030B58BB049
:102570000446BDF860500895BDF85C5007959DF87D
:10258000505006959DF84C5005959DF8485004957F
:102590009DF8445003959DF8405002959DF83C509D
:1025A0000195BDF8385000950FF0C4FE064B20464B
:1025B0002360159BE361169B2362199B63621A9B40
:1025C000A3620BB030BD00BF70600290806A70479C
:1025D0007047704770477047704730B585B00368E3
:1025E000044601816D460146D3F884303C342846C8
:1025F000984795E8070084E8070005B030BD30B57E
:1026000085B00368044641816D460146D3F88430A5
:102610003C342846984795E8070084E8070005B051
:1026200030BD0022028042808280C280704780F8E4
:1026300036107047036870B504461B6B1546984703
:102640002368204629465B6EBDE87040184700208D
:102650007047806C704780F82C10704710B4036886
:10266000046BD3F8A430624361435DF8044B184710
:10267000D0ED0C7A0368F8EEE77A10B420EE270A62
:10268000D3F8A440B5EEC00AF1EE10FA1ADBB6EEAC
:10269000007A30EE070ABDEEC07A17EE101A60EE2F
:1026A000A70AF5EEC00AF1EE10FA1EDBF6EE007A8C
:1026B00070EEA70AFDEEE07A17EE902A23465DF849
:1026C000044B1847BDEEC07AF8EEC76A17EE103A11
:1026D000013B30EE660AF7EE086A30EE260ABDEEE0
:1026E000C00A10EE101A1944D9E7FDEEE07AB8EEF0
:1026F000E77A17EE903A013B70EEC70AB7EE087A18
:1027000070EE870AFDEEE00A10EE902A1A44D5E733
:1027100010B40368046BD3F8B03062435DF8044B27
:102720001847D0ED0C7A0368F8EEE77A10B427EE7C
:10273000800AD3F8B040B5EEC00AF1EE10FA0BDB18
:10274000F6EE007A30EE270AFDEEC07A17EE902AF8
:1027500023465DF8044B1847FDEEC07AB8EEE77AE1
:1027600017EE903A013B30EE470AB7EE087A30EEAA
:10277000070ABDEEC00A10EE102A1A44E8E710B4AA
:102780000368446BD3F8BC30624361435DF8044B8B
:102790001847D0ED0D7A0368F8EEE77A10B420EE12
:1027A000270AD3F8BC40B5EEC00AF1EE10FA1ADBE6
:1027B000B6EE007A30EE070ABDEEC07A17EE101AB8
:1027C00060EEA70AF5EEC00AF1EE10FA1EDBF6EE97
:1027D000007A70EEA70AFDEEE07A17EE902A234603
:1027E0005DF8044B1847BDEEC07AF8EEC76A17EEE5
:1027F000103A013B30EE660AF7EE086A30EE260A20
:10280000BDEEC00A10EE101A1944D9E7FDEEE07AC9
:10281000B8EEE77A17EE903A013B70EEC70AB7EED2
:10282000087A70EE870AFDEEE00A10EE902A1A444C
:10283000D5E710B40368446BD3F8C03062435DF849
:10284000044B1847D0ED0D7A0368F8EEE77A10B420
:1028500027EE800AD3F8C040B5EEC00AF1EE10FAB8
:102860000BDBF6EE007A30EE270AFDEEC07A17EEAB
:10287000902A23465DF8044B1847FDEEC07AB8EE67
:10288000E77A17EE903A013B30EE470AB7EE087A46
:1028900030EE070ABDEEC00A10EE102A1A44E8E72F
:1028A000D0F82C31026B002B07DB02EB430090FBCE
:1028B000F2F000EBD070401070476FF0010101FBA7
:1028C0000320013890FBF2F000EBD0704010404242
:1028D0007047D0ED4B7A90ED0C0AF8EEE77AB8EE3F
:1028E000C00A87EE800A7047D0F82C017047D0F8F4
:1028F0003031026B002B07DB02EB430090FBF2F060
:1029000000EBD070401070476FF0010101FB032015
:10291000013890FBF2F000EBD0704010404270475D
:10292000D0ED4C7A90ED0C0AF8EEE77AB8EEC00ADA
:1029300087EE800A7047D0F830017047D0F8343104
:10294000426B002B07DB02EB430090FBF2F000EB45
:10295000D070401070476FF0010101FB0320013877
:1029600090FBF2F000EBD070401040427047D0ED89
:102970004D7A90ED0D0AF8EEE77AB8EEC00A87EED0
:10298000800A7047D0F834017047D0F83831426B74
:10299000002B07DB02EB430090FBF2F000EBD07062
:1029A000401070476FF0010101FB0320013890FBDC
:1029B000F2F000EBD070401040427047D0ED4E7AFC
:1029C00090ED0D0AF8EEE77AB8EEC00A87EE800ABD
:1029D0007047D0F838017047036870B50446D3F8E3
:1029E00088300D46164698472368324629462046C9
:1029F000D3F89030BDE8704018470368D3F894309E
:102A000018470368D3F8D43018470368D3F8E03088
:102A100018470368002A10B4D3F8A430046B0EDB07
:102A200004EB420292FBF4F101EBD1714910B0F9D1
:102A30001E215DF8044B013A0A44494218476FF0E1
:102A4000010101FB0241013991FBF4F101EBD1716C
:102A500049104942EBE70368D3F83C311847026B51
:102A600003685143D3F8483118470368D3F8443119
:102A70001847D0ED0C7A0368F8EEE77AD3F84821CE
:102A800027EE800AB5EEC00AF1EE10FA08DBF6EE8A
:102A9000007A30EE270AFDEEC07A17EE901A104742
:102AA000FDEEC07AB8EEE77A17EE903A013B30EED1
:102AB000470AB7EE087A30EE070ABDEEC00A10EEFC
:102AC000101A1944EBE7C0F83C1170470368D3F8BB
:102AD00050311847036810B5D3F85C310446984765
:102AE0000028236B07DB03EB400090FBF3F000EBC7
:102AF000D070401010BD6FF0010202FB00300138B1
:102B000090FBF3F000EBD07040104042F2E7036816
:102B1000D3F858311847036810B50446D3F85C3130
:102B2000984707EE900A94ED0C0AF8EEE77AB8EEB3
:102B3000C00A87EE800A10BDD0F83C017047026BD6
:102B400003685143D3F868311847D0ED0C7A036815
:102B5000F8EEE77AD3F8682127EE800AB5EEC00ACE
:102B6000F1EE10FA08DBF6EE007A30EE270AFDEE01
:102B7000C07A17EE901A1047FDEEC07AB8EEE77AE9
:102B800017EE903A013B30EE470AB7EE087A30EE86
:102B9000070ABDEEC00A10EE101A1944EBE7C0F8A0
:102BA00040117047036810B5D3F874310446984754
:102BB0000028236B07DB03EB400090FBF3F000EBF6
:102BC000D070401010BD6FF0010202FB00300138E0
:102BD00090FBF3F000EBD07040104042F2E7036846
:102BE00010B50446D3F87431984707EE900A94ED77
:102BF0000C0AF8EEE77AB8EEC00A87EE800A10BD3C
:102C0000D0F84001704703680029026BD3F8843183
:102C100010B504460EDB02EB410191FBF2F101EB32
:102C2000D171491009B220469847D4E94F2302FBDD
:102C3000003010BD6FF0010000FB0121013991FB54
:102C4000F2F101EBD17149104942EBE7006B70479B
:102C5000406B70470368D3F8483118470368D3F8CE
:102C60005C311847026B03685143D3F8143118479D
:102C7000036870B5D3F818510446D0F84461D3F80E
:102C8000803198472B4656F820102046BDE870400A
:102C9000184703460846B3F91C21B3F91E119142A7
:102CA00007DBB3F94C31191891FBF2F302FB131156
:102CB00008B2704748017047C1627047C06A7047E8
:102CC0000120704770477047C06B18B10368D3F894
:102CD00080301847704730B5B2F91651B2F8184134
:102CE000B2F840102C44B2F942200580091B0024A0
:102CF000C2804480818030BD02808380BDF9002085
:102D0000BDF904304280C38070470B680846D3F891
:102D1000EC3018470B680846D3F8F8301847B1F97B
:102D200016017047B1F81631B1F81821B1F840001A
:102D30001344C01A00B27047B1F914017047B1F8DA
:102D40001431B1F81A21B1F842001344C01A00B28C
:102D500070470B6808461146D3F81831184770477A
:102D600070477047704770477047704730B4446889
:102D70000346C2689B68551004EB6200D20748BF47
:102D8000625930BC48BFD35818470346406830B139
:102D90009A681AB9D86800F001007047012070479E
:102DA00010B504464C2120F051FB204610BD10B553
:102DB0000446402120F04AFB204610BD10B50446D1
:102DC0004FF4397120F042FB204610BD10B5044687
:102DD000102120F03BFB204610BD38B503460846C5
:102DE000D3E90C540B68D3F894309847294602462F
:102DF0002046BDE8384009F04BBB0000034B10B53E
:102E0000044603600CF09AF9204610BDAC660290AF
:102E1000064B10B5044603600CF090F942F2942181
:102E2000204620F013FB204610BD00BFAC66029088
:102E300008B5FEF77BFB08BD08B590F82C300BB148
:102E4000FEF774FB08BD00F5B563994270B5044602
:102E50000D4602D10368DB6A984704F2DC539D42B9
:102E600005D1236820461B6BBDE87040184770BD34
:102E70000A1E10B503DBB0F91E41944206DC084B74
:102E800040F23961074A084821F026FA0368D0F871
:102E90004441D3F88031984754F8200010BD00BF5A
:102EA000D0600290F3600290426102900B1E10B558
:102EB000044603DBB0F91E219A4206DC074B40F2C0
:102EC0003361074A074821F007FA0368D3F88431D1
:102ED0009847D4E94F2302FB003010BDD060029028
:102EE0009F61029042610290036870B55E6B044678
:102EF000114B8DB21B682BB9104B6C21104A114835
:102F000021F0EAF91049828D0988914203D80F4BCC
:102F10006D210B4AF3E713F812200D4B1B6853F891
:102F2000220003681B6B9847291A3346204609B2D2
:102F3000BDE87040184700BF5C490120EE61029077
:102F4000306202906B62029060490120B26202908E
:102F50006449012000224FF0FF318260C0E9002166
:102F60007047036870B504461B6B15469847236885
:102F7000204629465B6BBDE87040184770B5044693
:102F80001D46BDF91060FFF7ECFF23682946204677
:102F90009B6B9847236831462046DB6BBDE8704049
:102FA000184700000022C0E90122C0E90322C0E95D
:102FB0000522C0E907224FF480728284014A026030
:102FC000704700BF4863029010B5044626220021D6
:102FD00021F089FB2046FFF7E5FF044B20462360E4
:102FE000FF2384F826300023A36210BD9471029061
:102FF00010B504462622002121F075FB2046FFF77C
:10300000D1FF0A4B4FF47F0220462360084BA36296
:103010004FF6FF73A3850023C4E90C324FF0FF3253
:103020002387E363C4E9102310BD00BF047102903D
:10303000E85C029037B501AB15460FF079FA00282D
:103040002A4601994FEA40144FF0200004DB0FF0AC
:103050008EFA204403B030BD0FF089FA201AF9E748
:1030600070B5B0F81A310E46B0F91441B0F84250BC
:103070002344ED1A2DB22C44691ED0E94D32013C97
:10308000D21AF01AFFF7D6FFC0EB441070BD38B566
:1030900004460D46B4F81631B4F818110B44B4F8D0
:1030A0004010C91AD0E94B0209B2121A281A013984
:1030B000FFF7C0FFB4F9163100EB431038BD000034
:1030C00010B5044608F0BAFD0A4A002320462260E3
:1030D0000122E36284F84030A4F84230A364C4E9DA
:1030E0000C23054AA2634FF6FF72A2872E22A4F892
:1030F000442010BD64700290E85C029010B5044654
:103100002622002121F0EFFA2046FFF74BFF002393
:103110002046A36284F82C30012384F82430044B29
:1031200023604FF6FF73E385238684F8323010BDA9
:10313000FC7102902DE9F04F044697B000250FF086
:10314000C1FBA246914B04F16C094FF6FF76E56393
:1031500004F1CC084AF8403B5046FFF735FF2622E1
:1031600029464846ADF8506021F0BDFA4846884FE0
:10317000FFF718FF874B14A94846E36604F5D47B94
:10318000BDF8503084F894600126A4F892300BF01A
:10319000CFF804F1980318460793FFF715FF7E4B0D
:1031A0004046C4F8C450C4F89830A4F8C850FFF79B
:1031B0001FFF04F58C73C4F8CC701846C4F8145182
:1031C0000393FFF715FF04F5B07318460493FFF758
:1031D0000FFF6521584609F0F7F8704B6422294625
:1031E000C4F8A83104F53E735846C4E9BB35C4E9B8
:1031F000B965FFF733FA6A4BA4F8F452C4F8A83162
:1032000004F28C431846089308F018FD0A23C4F80A
:10321000B854C4F8C034634BC4F8BC64C4F88C34EC
:1032200004F2CC4384F8C4641846C4F8C854099323
:10323000FFF746FF5C4BC4F8CC3404F5A363184693
:103240000A93FFF73DFF594BC4F8183504F2645355
:1032500018460B9308F0F2FC554BC4F864354FF058
:10326000020384F8903504F2945318460C93FEF749
:103270008BF9504BC4F8A055C4F894352433C4F8E6
:103280009C3504F5B56318460593FFF737FF04F244
:10329000DC5318460693FFF731FF04F5C263184666
:1032A0000293FFF7A5FE04F50053434A4FF4E151A2
:1032B000C4F8107604F26460C4F858564FF07F47A3
:1032C000C3E9A1243D4AC3E9A3250BF02DFF4FF428
:1032D00088732A462946504600934FF4F073FFF74F
:1032E0004DFE231D5146A76618460D9305F010FFAD
:1032F0002A4648462946FFF734FE484614A9ADF849
:1033000050500BF015F84946201D0DF1380905F015
:10331000FFFE4FF488732A462946079800934FF41E
:10332000F073FFF72BFE4FF0FF330799201DA4F831
:10333000C860C4E9303705F0EBFE9D224FF4D6712A
:103340004046FFF70EFED4F8CC3041464846D3F84D
:103350008430C4F8FC70A4F80051984704F58473D5
:1033600099E8070083E80700154B1B682BB9154B3C
:103370006021154A154820F0AFFF154B1B88022B22
:103380002AD8144B6121104AF4E700BFAC660290C2
:10339000B0630290D872029070720290E06B02905B
:1033A000F864029040640290246F0290C46F02900F
:1033B000A86E0290D06A029094660290472E009008
:1033C0005C490120EE610290F06202906B62029013
:1033D00060490120B2620290B04B0221DFF8D0A216
:1033E000186800F095FAC4F8140140460AF054FD3C
:1033F0004FF00402404614A9ADF85420CDF850A077
:103400000AF06AFD4146201D05F082FE642240F26A
:1034100097110398FFF7A5FD03994846A4F84C516E
:10342000C4F848714FF006080AF0AEFA04F5AA7322
:1034300099E8070083E807004FF0050114A8CDF8CC
:1034400050A0ADF85410014603980AF045FD0399C9
:10345000201D05F05DFE8D224FF4D3710498FFF717
:1034600080FD04994846A4F89451C4F890710AF07C
:103470008BFA04F5CE7399E8070083E8070014A8D7
:10348000ADF85480CDF850A0014604980AF024FD10
:103490000499201D05F03CFE4FF4887040F2A31300
:1034A0002A46294600905846FFF768FD2A463146CD
:1034B0005846FFF791FA294664225846FFF7CEF89E
:1034C00016231C220A2158460093132308F02DFFCF
:1034D0002B46424602215846CDF8008008F028FECF
:1034E0004FF4E17232215846FFF749F93223D4F8FC
:1034F000BC14324684F8C46403FB01F0C4F8B87409
:103500000028B8BF4042C4F8C00408F0C1FF0899C1
:10351000C4F8C0045846C4F8BC6408F014FED4F8DB
:10352000FC140A203246A4F808654843C4F8F8742D
:103530000028B8BF4042C4F8000508F0A9FF099967
:10354000C4F800055846C4F8FC6408F020FE322395
:10355000D4F848153246A4F8545503FB01F0C4F8DA
:1035600044750028B8BF4042C4F84C0508F090FFED
:103570000A99C4F84C055846C4F84865072608F06F
:10358000F4FD474B0C9A4FF00200C4F8A0354CF202
:10359000A203C4F88C25A4F8A4350B9984F89005EF
:1035A000584608F0D0FD5946201D05F0B1FD2622F1
:1035B00040F2A3110598FFF7D4FC14A8ADF8508091
:1035C00004F50A58024613A808F10408ADF84C6047
:1035D000014605980AF0DEFC0599201DC4F8D08547
:1035E00005F096FDBB2240F2A3110698FFF7B9FC47
:1035F0004FF005014FF004020698ADF84C1013A9E6
:10360000ADF8502014AA0AF0C5FC0699201DC4F894
:10361000048605F07DFD742240F2A9110298FFF79F
:10362000A0FCD4F8103602994846D3F88430A4F8A8
:10363000445604F25C65C4F84076984704F24C6343
:1036400099E8070083E80700164A1368002B3FF447
:103650008EAE154A1388032B7FF693AE0F4B0321D2
:10366000186800F055F9114A03460421284610F065
:10367000DBFD0298C4F858560AF00EFC14A9029813
:10368000CDF850A0ADF854600AF026FC201D029938
:1036900005F03EFD204617B0BDE8F08F68490120D7
:1036A0001616C4FF5C490120604901203B6302906B
:1036B000E85C02907047000030B5174D8FB02C6861
:1036C000BFF35B8F14F0010422D128461FF0C0FE27
:1036D000F0B13F23012211490993114B114808937E
:1036E000114B0A940594CDE906430423CDE9033236
:1036F0000C23132200930E23CDE90B44CDE90144A2
:10370000FEF734FF094820F005FE28461FF0ACFE06
:1037100004480FB030BD00BF80390020140610905F
:10372000107C029084390020247C0290B5360090F1
:103730007047000030B5174D8FB02C68BFF35B8F1A
:1037400014F0010422D128461FF082FEF0B13F237D
:10375000012211490993114B11480893114B0A9406
:103760000594CDE906430423CDE903321023192241
:1037700000931323CDE90B44CDE90144FEF7F6FE97
:10378000094820F0C7FD28461FF06EFE04480FB020
:1037900030BD00BFB039002020071090147C02908B
:1037A000B4390020287C0290313700900020704707
:1037B000002070470EB403B503AB002153F8042B6F
:1037C00001930EF0BBF802B05DF804EB03B0704754
:1037D0000CB407B504AB53F8042B01930EF0AEF80C
:1037E00003B05DF804EB02B070470000436C10B505
:1037F000044673B3038F2BB9184BC521184A1948D7
:1038000020F06AFDC38E00EB43035B8C0BB30FF01B
:1038100063FF238F012B03D8134BCB21134AEEE711
:10382000E28E40F63F10531C9BB2092B194688BF0D
:10383000A3F10A0104EB4101498C814209D10A2B11
:1038400004EB420228BF0023508C04EB430358844E
:1038500051842046BDE810400FF040BEE066029063
:10386000E966029094670290DE670290EC6702902E
:103870000FF0FDBD10B586B002AC84E806001A4614
:103880000AAB214605930193099B0093089B0CF01A
:10389000EBFC06B010BD000038B518BB124B134846
:1038A0001C681349B4B12268224402606268224451
:1038B0000A60A26814440F4B00221A8000F038F806
:1038C000054600F033F80C4B1C600C4B1D600C4B94
:1038D000188007E00B4B03600B4B0B600B4B1C6815
:1038E000002CE8D138BD00BFEC390020E4390020BD
:1038F000E0390020E83900205C49012064490120BA
:1039000060490120A008109080081090E0081090F5
:10391000044B1B6853F82100034B1B6803EB40006A
:10392000704700BFE0390020E439002008207047CC
:1039300000487047F039002010B5044CFFF7BCFE7A
:103940002060FFF7F7FE606010BD00BFF039002077
:1039500010B5002404600C6014601C6010BD70473A
:1039600010B504464FF4AE711FF070FD204610BD37
:1039700010B50446D0F8580100F017F92046BDE80C
:1039800010400DF00FB9000010B50446FEF778FDA9
:10399000014B2046236010BDC86802907047043870
:1039A0007047704710B5044610211FF04FFD2046A8
:1039B00010BDA0F10400F5E70022C1608260024A58
:1039C00002601832426070471C6902907047000024
:1039D000034B10B504460360FFF710FA204610BDF4
:1039E0004869029010B50446FFF7F2FF42F29C21AD
:1039F00020461FF02BFD204610BD000000F50053AF
:103A000070B5D3F89452044601352DED028BC3F8FE
:103A10009452EB0747D4D0F8DC61D0EDB87A07EECA
:103A2000106AF8EEE77AB8EEC77A87EE878A07EE73
